{
  "contractName": "RobinHood",
  "abi": [
    {
      "constant": true,
      "inputs": [],
      "name": "donationAddress",
      "outputs": [
        {
          "name": "",
          "type": "address"
        }
      ],
      "payable": false,
      "stateMutability": "view",
      "type": "function"
    },
    {
      "inputs": [],
      "payable": false,
      "stateMutability": "nonpayable",
      "type": "constructor"
    },
    {
      "payable": true,
      "stateMutability": "payable",
      "type": "fallback"
    },
    {
      "anonymous": false,
      "inputs": [
        {
          "indexed": false,
          "name": "_stealAt",
          "type": "uint32"
        }
      ],
      "name": "StealEvent",
      "type": "event"
    },
    {
      "anonymous": false,
      "inputs": [
        {
          "indexed": false,
          "name": "_amount",
          "type": "uint256"
        },
        {
          "indexed": false,
          "name": "_provideAt",
          "type": "uint32"
        }
      ],
      "name": "ProvideEvent",
      "type": "event"
    },
    {
      "constant": false,
      "inputs": [
        {
          "name": "_devilAddress",
          "type": "address"
        }
      ],
      "name": "steal",
      "outputs": [],
      "payable": false,
      "stateMutability": "nonpayable",
      "type": "function"
    },
    {
      "constant": false,
      "inputs": [],
      "name": "provide",
      "outputs": [],
      "payable": false,
      "stateMutability": "nonpayable",
      "type": "function"
    }
  ],
  "bytecode": "0x608060405273b9407f0033dca85ac48126a53e1997ffde04b746600160006101000a81548173ffffffffffffffffffffffffffffffffffffffff021916908373ffffffffffffffffffffffffffffffffffffffff16021790555034801561006557600080fd5b50600160008190555061032c8061007d6000396000f3fe608060405260043610610057576000357c0100000000000000000000000000000000000000000000000000000000900463ffffffff1680635dc8abb214610059578063b9472535146100aa578063ec034bed146100c1575b005b34801561006557600080fd5b506100a86004803603602081101561007c57600080fd5b81019080803573ffffffffffffffffffffffffffffffffffffffff169060200190929190505050610118565b005b3480156100b657600080fd5b506100bf6101e0565b005b3480156100cd57600080fd5b506100d66102da565b604051808273ffffffffffffffffffffffffffffffffffffffff1673ffffffffffffffffffffffffffffffffffffffff16815260200191505060405180910390f35b60008190508073ffffffffffffffffffffffffffffffffffffffff166314f515ad6040518163ffffffff167c0100000000000000000000000000000000000000000000000000000000028152600401600060405180830381600087803b15801561018157600080fd5b505af1158015610195573d6000803e3d6000fd5b505050507f4a1c01c0bc12bf029015f43ed7902cb55d877705134b4ab113ad3b07d0dbf1ed42604051808263ffffffff1663ffffffff16815260200191505060405180910390a15050565b6001600080828254019250508190555060008054905060003073ffffffffffffffffffffffffffffffffffffffff16319050600160009054906101000a900473ffffffffffffffffffffffffffffffffffffffff1673ffffffffffffffffffffffffffffffffffffffff166108fc829081150290604051600060405180830381858888f1935050505015801561027a573d6000803e3d6000fd5b507f454ee9f5bf83da504b35223df6c09c632c48a3fb9a3bf3dfddc4b087cb8cfb2b8142604051808381526020018263ffffffff1663ffffffff1681526020019250505060405180910390a150600054811415156102d757600080fd5b50565b600160009054906101000a900473ffffffffffffffffffffffffffffffffffffffff168156fea165627a7a72305820642e0b538d7ca917fa8942512bd4dd9d76cd73bc14bcee878b0176e07716d73d0029",
  "source": "pragma solidity >=0.4.99 <0.6.0;\n\nimport \"openzeppelin-solidity/contracts/utils/ReentrancyGuard.sol\";\nimport \"./Devil.sol\";\n\n/**\n * @title RobinHood\n * @author Ryo Komiyama <https://github.com/ryokomy>\n */\ncontract RobinHood is ReentrancyGuard {\n\n    event StealEvent(\n        uint32 _stealAt\n    );\n    event ProvideEvent(\n        uint256 _amount,\n        uint32 _provideAt\n    );\n\n    /**\n     * @notice\n     * This is the wallet address of UNICEF New Zealand\n     * <https://www.unicef.org.nz/donate-in-crypto>\n     */\n    address payable public donationAddress = 0xB9407f0033DcA85ac48126a53E1997fFdE04B746;\n\n    constructor() public {}\n    function() external payable {}\n\n    function steal(address _devilAddress) external {\n        Devil devil = Devil(_devilAddress);\n        devil.stolen();\n        emit StealEvent(uint32(now));\n    }\n\n    function provide() external nonReentrant() {\n        uint256 amount = address(this).balance;\n        donationAddress.transfer(amount);\n        // solium-disable-next-line security/no-block-members\n        emit ProvideEvent(amount, uint32(now));\n    }\n}\n",
  "sourcePath": "/Users/ryoheikomiyama/src/github.com/ryokomy/wakeup-contract/contracts/RobinHood.sol",
  "compiler": {
    "name": "solc",
    "version": "0.5.0+commit.1d4f565a.Emscripten.clang"
  },
  "schemaVersion": "3.0.1",
  "updatedAt": "2019-03-04T08:31:23.290Z",
  "devdoc": {
    "author": "Ryo Komiyama <https://github.com/ryokomy>",
    "methods": {},
    "title": "RobinHood"
  },
  "userdoc": {
    "methods": {}
  }
}