{
  "contractName": "TenDaysWakeUpDevil",
  "abi": [
    {
      "constant": true,
      "inputs": [],
      "name": "robinHoodAddress",
      "outputs": [
        {
          "name": "",
          "type": "address"
        }
      ],
      "payable": false,
      "stateMutability": "view",
      "type": "function"
    },
    {
      "constant": false,
      "inputs": [],
      "name": "renounceOwnership",
      "outputs": [],
      "payable": false,
      "stateMutability": "nonpayable",
      "type": "function"
    },
    {
      "constant": true,
      "inputs": [],
      "name": "depositETHAmount",
      "outputs": [
        {
          "name": "",
          "type": "uint256"
        }
      ],
      "payable": false,
      "stateMutability": "view",
      "type": "function"
    },
    {
      "constant": true,
      "inputs": [],
      "name": "owner",
      "outputs": [
        {
          "name": "",
          "type": "address"
        }
      ],
      "payable": false,
      "stateMutability": "view",
      "type": "function"
    },
    {
      "constant": true,
      "inputs": [],
      "name": "isOwner",
      "outputs": [
        {
          "name": "",
          "type": "bool"
        }
      ],
      "payable": false,
      "stateMutability": "view",
      "type": "function"
    },
    {
      "constant": true,
      "inputs": [],
      "name": "totalOversleepCount",
      "outputs": [
        {
          "name": "",
          "type": "uint256"
        }
      ],
      "payable": false,
      "stateMutability": "view",
      "type": "function"
    },
    {
      "constant": true,
      "inputs": [],
      "name": "numberOfWakeUpUnits",
      "outputs": [
        {
          "name": "",
          "type": "uint256"
        }
      ],
      "payable": false,
      "stateMutability": "view",
      "type": "function"
    },
    {
      "constant": true,
      "inputs": [],
      "name": "totalLostETH",
      "outputs": [
        {
          "name": "",
          "type": "uint256"
        }
      ],
      "payable": false,
      "stateMutability": "view",
      "type": "function"
    },
    {
      "constant": false,
      "inputs": [
        {
          "name": "newOwner",
          "type": "address"
        }
      ],
      "name": "transferOwnership",
      "outputs": [],
      "payable": false,
      "stateMutability": "nonpayable",
      "type": "function"
    },
    {
      "inputs": [
        {
          "name": "_robinHoodAddress",
          "type": "address"
        }
      ],
      "payable": false,
      "stateMutability": "nonpayable",
      "type": "constructor"
    },
    {
      "anonymous": false,
      "inputs": [
        {
          "indexed": true,
          "name": "_userAddress",
          "type": "address"
        },
        {
          "indexed": true,
          "name": "_id",
          "type": "uint256"
        },
        {
          "indexed": false,
          "name": "_startAt",
          "type": "uint32"
        }
      ],
      "name": "RegisterEvent",
      "type": "event"
    },
    {
      "anonymous": false,
      "inputs": [
        {
          "indexed": true,
          "name": "_id",
          "type": "uint256"
        },
        {
          "indexed": true,
          "name": "_day",
          "type": "uint8"
        },
        {
          "indexed": false,
          "name": "_wakeUpAt",
          "type": "uint32"
        }
      ],
      "name": "WakeUpEvent",
      "type": "event"
    },
    {
      "anonymous": false,
      "inputs": [
        {
          "indexed": true,
          "name": "_id",
          "type": "uint256"
        },
        {
          "indexed": false,
          "name": "_oversleepCount",
          "type": "uint8"
        },
        {
          "indexed": false,
          "name": "_lostETH",
          "type": "uint256"
        },
        {
          "indexed": false,
          "name": "_finishAt",
          "type": "uint32"
        }
      ],
      "name": "FinishEvent",
      "type": "event"
    },
    {
      "anonymous": false,
      "inputs": [
        {
          "indexed": false,
          "name": "_stolenETH",
          "type": "uint256"
        },
        {
          "indexed": false,
          "name": "_stolenAt",
          "type": "uint32"
        }
      ],
      "name": "StolenEvent",
      "type": "event"
    },
    {
      "anonymous": false,
      "inputs": [
        {
          "indexed": true,
          "name": "previousOwner",
          "type": "address"
        },
        {
          "indexed": true,
          "name": "newOwner",
          "type": "address"
        }
      ],
      "name": "OwnershipTransferred",
      "type": "event"
    },
    {
      "constant": false,
      "inputs": [
        {
          "name": "_startAt",
          "type": "uint32"
        }
      ],
      "name": "register",
      "outputs": [],
      "payable": true,
      "stateMutability": "payable",
      "type": "function"
    },
    {
      "constant": false,
      "inputs": [
        {
          "name": "_day",
          "type": "uint8"
        }
      ],
      "name": "wakeUp",
      "outputs": [],
      "payable": false,
      "stateMutability": "nonpayable",
      "type": "function"
    },
    {
      "constant": false,
      "inputs": [],
      "name": "finish",
      "outputs": [],
      "payable": false,
      "stateMutability": "nonpayable",
      "type": "function"
    },
    {
      "constant": false,
      "inputs": [],
      "name": "stolen",
      "outputs": [],
      "payable": false,
      "stateMutability": "nonpayable",
      "type": "function"
    },
    {
      "constant": true,
      "inputs": [
        {
          "name": "_userAddress",
          "type": "address"
        }
      ],
      "name": "userAddressToWakeUpUnit",
      "outputs": [
        {
          "components": [
            {
              "name": "id",
              "type": "uint256"
            },
            {
              "name": "wakeUpAts",
              "type": "uint32[10]"
            },
            {
              "name": "successes",
              "type": "bool[10]"
            },
            {
              "name": "exists",
              "type": "bool"
            }
          ],
          "name": "",
          "type": "tuple"
        }
      ],
      "payable": false,
      "stateMutability": "view",
      "type": "function"
    },
    {
      "constant": true,
      "inputs": [],
      "name": "lostETHPerOversleep",
      "outputs": [
        {
          "name": "",
          "type": "uint256"
        }
      ],
      "payable": false,
      "stateMutability": "view",
      "type": "function"
    },
    {
      "constant": true,
      "inputs": [],
      "name": "currentTime",
      "outputs": [
        {
          "name": "",
          "type": "uint32"
        }
      ],
      "payable": false,
      "stateMutability": "view",
      "type": "function"
    }
  ],
  "bytecode": "0x6080604052600060025560006003556729a2241af62c000060045560006005553480156200002c57600080fd5b506040516020806200202e83398101806040526200004e91908101906200016f565b336000806101000a81548173ffffffffffffffffffffffffffffffffffffffff021916908373ffffffffffffffffffffffffffffffffffffffff1602179055506000809054906101000a900473ffffffffffffffffffffffffffffffffffffffff1673ffffffffffffffffffffffffffffffffffffffff16600073ffffffffffffffffffffffffffffffffffffffff167f8be0079c531659141344cd1fd0a4f28419497f9722a3daafe3b4186f6b6457e060405160405180910390a36001808190555080600760006101000a81548173ffffffffffffffffffffffffffffffffffffffff021916908373ffffffffffffffffffffffffffffffffffffffff16021790555050620001cf565b6000620001678251620001bb565b905092915050565b6000602082840312156200018257600080fd5b6000620001928482850162000159565b91505092915050565b600073ffffffffffffffffffffffffffffffffffffffff82169050919050565b6000620001c8826200019b565b9050919050565b611e4f80620001df6000396000f3fe6080604052600436106100e6576000357c0100000000000000000000000000000000000000000000000000000000900463ffffffff1680630af39c69146100eb578063130d79061461012857806314f515ad146101445780635d6fae671461015b5780635dce577614610184578063715018a6146101af57806385a07678146101c65780638da5cb5b146101f15780638f32d59b1461021c5780639180f7a8146102475780639b0c9f0114610272578063c500f94b1461029d578063d18e81b3146102c8578063d56b2889146102f3578063f1e6b87c1461030a578063f2fde38b14610335575b600080fd5b3480156100f757600080fd5b50610112600480360361010d9190810190611730565b61035e565b60405161011f9190611c79565b60405180910390f35b610142600480360361013d9190810190611759565b6104b8565b005b34801561015057600080fd5b5061015961081a565b005b34801561016757600080fd5b50610182600480360361017d9190810190611782565b610960565b005b34801561019057600080fd5b50610199610d0f565b6040516101a69190611b23565b60405180910390f35b3480156101bb57600080fd5b506101c4610d35565b005b3480156101d257600080fd5b506101db610e07565b6040516101e89190611c95565b60405180910390f35b3480156101fd57600080fd5b50610206610e0d565b6040516102139190611b08565b60405180910390f35b34801561022857600080fd5b50610231610e36565b60405161023e9190611b3e565b60405180910390f35b34801561025357600080fd5b5061025c610e8d565b6040516102699190611c95565b60405180910390f35b34801561027e57600080fd5b50610287610e93565b6040516102949190611c95565b60405180910390f35b3480156102a957600080fd5b506102b2610e99565b6040516102bf9190611c95565b60405180910390f35b3480156102d457600080fd5b506102dd610eb6565b6040516102ea9190611cd9565b60405180910390f35b3480156102ff57600080fd5b50610308610ebe565b005b34801561031657600080fd5b5061031f6112ae565b60405161032c9190611c95565b60405180910390f35b34801561034157600080fd5b5061035c60048036036103579190810190611730565b6112b4565b005b610366611478565b600660008373ffffffffffffffffffffffffffffffffffffffff1673ffffffffffffffffffffffffffffffffffffffff168152602001908152602001600020608060405190810160405290816000820154815260200160018201600a806020026040519081016040528092919082600a8015610423576020028201916000905b82829054906101000a900463ffffffff1663ffffffff16815260200190600401906020826003010492830192600103820291508084116103e65790505b5050505050815260200160038201600a806020026040519081016040528092919082600a801561048d576020028201916000905b82829054906101000a900460ff161515815260200190600101906020826000010492830192600103820291508084116104575790505b505050505081526020016004820160009054906101000a900460ff1615151515815250509050919050565b60018060008282540192505081905550600060015490506004543410151515610516576040517f08c379a000000000000000000000000000000000000000000000000000000000815260040161050d90611b99565b60405180910390fd5b60001515600660003373ffffffffffffffffffffffffffffffffffffffff1673ffffffffffffffffffffffffffffffffffffffff16815260200190815260200160002060040160009054906101000a900460ff1615151415156105ae576040517f08c379a00000000000000000000000000000000000000000000000000000000081526004016105a590611bf9565b60405180910390fd5b428263ffffffff161180156105cd57506206978042018263ffffffff16105b151561060e576040517f08c379a000000000000000000000000000000000000000000000000000000000815260040161060590611b59565b60405180910390fd5b61062460016005546112d390919063ffffffff16565b6005819055506106326114b0565b61063a6114d4565b610642611478565b608060405190810160405280600554815260200184815260200183815260200160011515815250905060008090505b600a8110156106be576201518081028663ffffffff1601826020015182600a8110151561069a57fe5b602002019063ffffffff16908163ffffffff16815250508080600101915050610671565b5080600660003373ffffffffffffffffffffffffffffffffffffffff1673ffffffffffffffffffffffffffffffffffffffff1681526020019081526020016000206000820151816000015560208201518160010190600a6107209291906114f8565b5060408201518160030190600a61073892919061159b565b5060608201518160040160006101000a81548160ff0219169083151502179055509050506004543411156107b2573373ffffffffffffffffffffffffffffffffffffffff166108fc60045434039081150290604051600060405180830381858888f193505050501580156107b0573d6000803e3d6000fd5b505b6005543373ffffffffffffffffffffffffffffffffffffffff167f45182979a4b64516cb8005d5badc8f54f09b0781111870d67994b7a97a599eab876040516107fb9190611cd9565b60405180910390a35050506001548114151561081657600080fd5b5050565b600760009054906101000a900473ffffffffffffffffffffffffffffffffffffffff1673ffffffffffffffffffffffffffffffffffffffff163373ffffffffffffffffffffffffffffffffffffffff161415156108ac576040517f08c379a00000000000000000000000000000000000000000000000000000000081526004016108a390611c59565b60405180910390fd5b600060035490506000600381905550600760009054906101000a900473ffffffffffffffffffffffffffffffffffffffff1673ffffffffffffffffffffffffffffffffffffffff166108fc829081150290604051600060405180830381858888f19350505050158015610923573d6000803e3d6000fd5b507fccf04fe83f8ceec37a4019246e2c1282be2699b868d6a14667f60405350d897d8142604051610955929190611cb0565b60405180910390a150565b8060ff166001111580156109785750600a8160ff1611155b15156109b9576040517f08c379a00000000000000000000000000000000000000000000000000000000081526004016109b090611bb9565b60405180910390fd5b6109c1611478565b600660003373ffffffffffffffffffffffffffffffffffffffff1673ffffffffffffffffffffffffffffffffffffffff168152602001908152602001600020608060405190810160405290816000820154815260200160018201600a806020026040519081016040528092919082600a8015610a7e576020028201916000905b82829054906101000a900463ffffffff1663ffffffff1681526020019060040190602082600301049283019260010382029150808411610a415790505b5050505050815260200160038201600a806020026040519081016040528092919082600a8015610ae8576020028201916000905b82829054906101000a900460ff16151581526020019060010190602082600001049283019260010382029150808411610ab25790505b505050505081526020016004820160009054906101000a900460ff16151515158152505090506001151581606001511515141515610b5b576040517f08c379a0000000000000000000000000000000000000000000000000000000008152600401610b5290611bd9565b60405180910390fd5b60006001830360ff16905060001515826040015182600a81101515610b7c57fe5b60200201511515141515610bc5576040517f08c379a0000000000000000000000000000000000000000000000000000000008152600401610bbc90611c39565b60405180910390fd5b60004261012c846020015184600a81101515610bdd57fe5b60200201510363ffffffff16108015610c15575061012c836020015183600a81101515610c0657fe5b60200201510163ffffffff1642105b9050801515610c59576040517f08c379a0000000000000000000000000000000000000000000000000000000008152600401610c5090611c19565b60405180910390fd5b6001600660003373ffffffffffffffffffffffffffffffffffffffff1673ffffffffffffffffffffffffffffffffffffffff16815260200190815260200160002060030183600a81101515610caa57fe5b602091828204019190066101000a81548160ff0219169083151502179055508360ff1683600001517f1d1e360971c1bae4e8192abc37b7ee75084f7f0c4c339f2d942d56344e72cd8e42604051610d019190611cd9565b60405180910390a350505050565b600760009054906101000a900473ffffffffffffffffffffffffffffffffffffffff1681565b610d3d610e36565b1515610d4857600080fd5b600073ffffffffffffffffffffffffffffffffffffffff166000809054906101000a900473ffffffffffffffffffffffffffffffffffffffff1673ffffffffffffffffffffffffffffffffffffffff167f8be0079c531659141344cd1fd0a4f28419497f9722a3daafe3b4186f6b6457e060405160405180910390a360008060006101000a81548173ffffffffffffffffffffffffffffffffffffffff021916908373ffffffffffffffffffffffffffffffffffffffff160217905550565b60045481565b60008060009054906101000a900473ffffffffffffffffffffffffffffffffffffffff16905090565b60008060009054906101000a900473ffffffffffffffffffffffffffffffffffffffff1673ffffffffffffffffffffffffffffffffffffffff163373ffffffffffffffffffffffffffffffffffffffff1614905090565b60025481565b60055481565b6000610eb1600a6004546112f490919063ffffffff16565b905090565b600042905090565b6001806000828254019250508190555060006001549050610edd611478565b600660003373ffffffffffffffffffffffffffffffffffffffff1673ffffffffffffffffffffffffffffffffffffffff168152602001908152602001600020608060405190810160405290816000820154815260200160018201600a806020026040519081016040528092919082600a8015610f9a576020028201916000905b82829054906101000a900463ffffffff1663ffffffff1681526020019060040190602082600301049283019260010382029150808411610f5d5790505b5050505050815260200160038201600a806020026040519081016040528092919082600a8015611004576020028201916000905b82829054906101000a900460ff16151581526020019060010190602082600001049283019260010382029150808411610fce5790505b505050505081526020016004820160009054906101000a900460ff16151515158152505090506001151581606001511515141515611077576040517f08c379a000000000000000000000000000000000000000000000000000000000815260040161106e90611bd9565b60405180910390fd5b4281602001516009600a8110151561108b57fe5b602002015163ffffffff161015156110d8576040517f08c379a00000000000000000000000000000000000000000000000000000000081526004016110cf90611b79565b60405180910390fd5b600080905060008090505b600a81101561111f57826040015181600a811015156110fe57fe5b602002015115156111125781806001019250505b80806001019150506110e3565b50611135816002546112d390919063ffffffff16565b600281905550600660003373ffffffffffffffffffffffffffffffffffffffff1673ffffffffffffffffffffffffffffffffffffffff1681526020019081526020016000206000808201600090556001820160006111939190611634565b6003820160006111a39190611642565b6004820160006101000a81549060ff0219169055505060006111d56111c6610e99565b8361131e90919063ffffffff16565b90506111ec816003546112d390919063ffffffff16565b600381905550600454811015611258573373ffffffffffffffffffffffffffffffffffffffff166108fc61122b8360045461135c90919063ffffffff16565b9081150290604051600060405180830381858888f19350505050158015611256573d6000803e3d6000fd5b505b82600001517ff9dc20bf96ca2ba7b03438afba0637f56a6c788fabad61dfc40604b5bb46eb9a83834260405161129093929190611cf4565b60405180910390a2505050600154811415156112ab57600080fd5b50565b60035481565b6112bc610e36565b15156112c757600080fd5b6112d08161137e565b50565b60008082840190508381101515156112ea57600080fd5b8091505092915050565b6000808211151561130457600080fd5b6000828481151561131157fe5b0490508091505092915050565b6000808314156113315760009050611356565b6000828402905082848281151561134457fe5b0414151561135157600080fd5b809150505b92915050565b600082821115151561136d57600080fd5b600082840390508091505092915050565b600073ffffffffffffffffffffffffffffffffffffffff168173ffffffffffffffffffffffffffffffffffffffff16141515156113ba57600080fd5b8073ffffffffffffffffffffffffffffffffffffffff166000809054906101000a900473ffffffffffffffffffffffffffffffffffffffff1673ffffffffffffffffffffffffffffffffffffffff167f8be0079c531659141344cd1fd0a4f28419497f9722a3daafe3b4186f6b6457e060405160405180910390a3806000806101000a81548173ffffffffffffffffffffffffffffffffffffffff021916908373ffffffffffffffffffffffffffffffffffffffff16021790555050565b6102c06040519081016040528060008152602001611494611649565b81526020016114a161166d565b81526020016000151581525090565b61014060405190810160405280600a90602082028038833980820191505090505090565b61014060405190810160405280600a90602082028038833980820191505090505090565b82600a60070160089004810192821561158a5791602002820160005b8382111561155857835183826101000a81548163ffffffff021916908363ffffffff1602179055509260200192600401602081600301049283019260010302611514565b80156115885782816101000a81549063ffffffff0219169055600401602081600301049283019260010302611558565b505b5090506115979190611691565b5090565b82600a601f016020900481019282156116235791602002820160005b838211156115f457835183826101000a81548160ff02191690831515021790555092602001926001016020816000010492830192600103026115b7565b80156116215782816101000a81549060ff02191690556001016020816000010492830192600103026115f4565b505b50905061163091906116c4565b5090565b506000815560010160009055565b5060009055565b61014060405190810160405280600a90602082028038833980820191505090505090565b61014060405190810160405280600a90602082028038833980820191505090505090565b6116c191905b808211156116bd57600081816101000a81549063ffffffff021916905550600101611697565b5090565b90565b6116f191905b808211156116ed57600081816101000a81549060ff0219169055506001016116ca565b5090565b90565b60006117008235611de6565b905092915050565b60006117148235611df8565b905092915050565b60006117288235611e08565b905092915050565b60006020828403121561174257600080fd5b6000611750848285016116f4565b91505092915050565b60006020828403121561176b57600080fd5b600061177984828501611708565b91505092915050565b60006020828403121561179457600080fd5b60006117a28482850161171c565b91505092915050565b6117b481611d81565b82525050565b6117c381611d6f565b82525050565b6117d281611d3f565b6117db82611d2b565b60005b8281101561180d576117f185835161185f565b6117fa82611d55565b91506020850194506001810190506117de565b5050505050565b61181d81611d4a565b61182682611d35565b60005b828110156118585761183c858351611aea565b61184582611d62565b9150602085019450600181019050611829565b5050505050565b61186881611d93565b82525050565b6000601282527f696e76616c69642073746172742074696d6500000000000000000000000000006020830152604082019050919050565b6000601c82527f636f6e747261637420686176656e2774206578706972656420796574000000006020830152604082019050919050565b6000601982527f6465706f73697420455448206973206e6f7420656e6f756768000000000000006020830152604082019050919050565b6000601982527f676976656e20646179206973206e6f7420696e2072616e6765000000000000006020830152604082019050919050565b6000601282527f7573657220646f65736e277420657869737400000000000000000000000000006020830152604082019050919050565b6000601a82527f7573657220697320616c726561647920726567697374657265640000000000006020830152604082019050919050565b6000601682527f77616b6575702074696d6520697320696e76616c6964000000000000000000006020830152604082019050919050565b6000601c82527f616c72656164792073756363656564656420746f2077616b65207570000000006020830152604082019050919050565b6000603282527f4e6f206f6e652063616e20737465616c20646576696c2773204554482061706160208301527f72742066726f6d20526f62696e20486f6f6400000000000000000000000000006040830152606082019050919050565b6102c082016000820151611a9a6000850182611adb565b506020820151611aad6020850182611814565b506040820151611ac16101608501826117c9565b506060820151611ad56102a085018261185f565b50505050565b611ae481611dbf565b82525050565b611af381611dc9565b82525050565b611b0281611dd9565b82525050565b6000602082019050611b1d60008301846117ba565b92915050565b6000602082019050611b3860008301846117ab565b92915050565b6000602082019050611b53600083018461185f565b92915050565b60006020820190508181036000830152611b728161186e565b9050919050565b60006020820190508181036000830152611b92816118a5565b9050919050565b60006020820190508181036000830152611bb2816118dc565b9050919050565b60006020820190508181036000830152611bd281611913565b9050919050565b60006020820190508181036000830152611bf28161194a565b9050919050565b60006020820190508181036000830152611c1281611981565b9050919050565b60006020820190508181036000830152611c32816119b8565b9050919050565b60006020820190508181036000830152611c52816119ef565b9050919050565b60006020820190508181036000830152611c7281611a26565b9050919050565b60006102c082019050611c8f6000830184611a83565b92915050565b6000602082019050611caa6000830184611adb565b92915050565b6000604082019050611cc56000830185611adb565b611cd26020830184611aea565b9392505050565b6000602082019050611cee6000830184611aea565b92915050565b6000606082019050611d096000830186611af9565b611d166020830185611adb565b611d236040830184611aea565b949350505050565b6000819050919050565b6000819050919050565b6000600a9050919050565b6000600a9050919050565b6000602082019050919050565b6000602082019050919050565b6000611d7a82611d9f565b9050919050565b6000611d8c82611d9f565b9050919050565b60008115159050919050565b600073ffffffffffffffffffffffffffffffffffffffff82169050919050565b6000819050919050565b600063ffffffff82169050919050565b600060ff82169050919050565b6000611df182611d9f565b9050919050565b600063ffffffff82169050919050565b600060ff8216905091905056fea265627a7a723058209113222a9b319cd28d77e4310a5b14503a2996560cc13290252ae517dde2329b6c6578706572696d656e74616cf50037",
  "source": "pragma solidity >=0.4.99 <0.6.0;\npragma experimental ABIEncoderV2;\n\nimport \"openzeppelin-solidity/contracts/ownership/Ownable.sol\";\nimport \"openzeppelin-solidity/contracts/utils/ReentrancyGuard.sol\";\nimport \"openzeppelin-solidity/contracts/math/SafeMath.sol\";\nimport \"./Devil.sol\";\n\n/**\n * @title TenDaysWakeUpDevil\n * @author Ryo Komiyama <https://github.com/ryokomy>\n */\ncontract TenDaysWakeUpDevil is Ownable, ReentrancyGuard, Devil {\n\n    using SafeMath for uint256;\n\n    /**\n     * @notice\n     * struct for wakeup data\n     */\n    struct WakeUpUnit {\n        uint256 id;\n        uint32[10] wakeUpAts;\n        bool[10] successes;\n        bool exists;\n    }\n\n    event RegisterEvent(\n        address indexed _userAddress,\n        uint256 indexed _id,\n        uint32 _startAt\n    );\n    event WakeUpEvent(\n        uint256 indexed _id,\n        uint8 indexed _day,\n        uint32 _wakeUpAt\n    );\n    event FinishEvent(\n        uint256 indexed _id,\n        uint8 _oversleepCount,\n        uint256 _lostETH,\n        uint32 _finishAt\n    );\n    event StolenEvent(\n        uint256 _stolenETH,\n        uint32 _stolenAt\n    );\n\n    uint256 public totalOversleepCount = 0;\n\n    /**\n     * @notice\n     * total ETH amount lost by users\n     */\n    uint256 public totalLostETH = 0;\n\n    /**\n     * @notice\n     * deposit ETH amount for register\n     * this ETH is progressively lost when user fails to waek up\n     */\n    uint256 public depositETHAmount = 3 ether;\n\n    uint256 public numberOfWakeUpUnits = 0;\n\n    /**\n     * @notice\n     * mapping from user address to wakeup data\n     */\n    mapping(address => WakeUpUnit) internal _userAddressToWakeUpUnit;\n\n    /**\n     * @notice\n     * This is the address of RobinHood who can steal Devil's ETH\n     */\n    address payable public robinHoodAddress;\n\n\n    /**\n     * @notice\n     * constructor\n     *\n     * @param _robinHoodAddress is contract address of RobinHood\n     */\n    constructor(address payable _robinHoodAddress) public {\n        robinHoodAddress = _robinHoodAddress;\n    }\n\n    /**\n     * @notice\n     * register function\n     * deposit is needed for register\n     *\n     * @param _startAt is the first wakeup time in Unix Time\n     */\n    function register(uint32 _startAt) external nonReentrant() payable\n    {\n        // higher value than depositETHAmont is needed for register\n        require(msg.value >= depositETHAmount, \"deposit ETH is not enough\");\n\n        // one address can register only once (TODO: fix this limitation)\n        require(_userAddressToWakeUpUnit[msg.sender].exists == false, \"user is already registered\");\n\n        // check startAt\n        // solium-disable-next-line security/no-block-members\n        require((_startAt > now) && (_startAt < now + 5 days), \"invalid start time\");\n\n        // increment numberOfWakeUpUnits\n        numberOfWakeUpUnits = numberOfWakeUpUnits.add(1);\n\n        // create WakeUpUnit\n        uint32[10] memory wakeUpAts;\n        bool[10] memory successes;\n        WakeUpUnit memory wakeUpUnit = WakeUpUnit({\n            id: numberOfWakeUpUnits,\n            wakeUpAts: wakeUpAts,\n            successes: successes,\n            exists: true\n        });\n        for (uint i = 0; i < 10; i++) {\n            wakeUpUnit.wakeUpAts[i] = uint32(_startAt + i * (1 days));\n        }\n        _userAddressToWakeUpUnit[msg.sender] = wakeUpUnit;\n\n        // return extra amount of ETH\n        if (msg.value > depositETHAmount) {\n            msg.sender.transfer(msg.value - depositETHAmount);\n        }\n\n        emit RegisterEvent(msg.sender, numberOfWakeUpUnits, _startAt);\n    }\n\n    /**\n     * @notice\n     * wakeUp function\n     *\n     * @param _day is counted from 1 to 10\n     */\n    function wakeUp(uint8 _day) external\n    {\n        require(1 <= _day && _day <= 10, \"given day is not in range\");\n\n        WakeUpUnit memory wakeUpUnit = _userAddressToWakeUpUnit[msg.sender];\n        require(wakeUpUnit.exists == true, \"user doesn't exist\");\n\n        uint256 dayIndex = _day - 1;\n        require(wakeUpUnit.successes[dayIndex] == false, \"already succeeded to wake up\");\n\n        // solium-disable-next-line security/no-block-members\n        bool timeCondition = (wakeUpUnit.wakeUpAts[dayIndex] - 5 minutes < now) && (now < wakeUpUnit.wakeUpAts[dayIndex] + 5 minutes);\n        require(timeCondition, \"wakeup time is invalid\");\n\n        // success to wake up\n        _userAddressToWakeUpUnit[msg.sender].successes[dayIndex] = true;\n\n        // solium-disable-next-line security/no-block-members\n        emit WakeUpEvent(wakeUpUnit.id, _day, uint32(now));\n    }\n\n    /**\n     * @notice\n     * This function make WakeUpUnit finish\n     * Overslept days are counted and Devil steal deposited ETH based on it.\n     */\n    function finish() external nonReentrant()\n    {\n        WakeUpUnit memory wakeUpUnit = _userAddressToWakeUpUnit[msg.sender];\n        require(wakeUpUnit.exists == true, \"user doesn't exist\");\n        // solium-disable-next-line security/no-block-members\n        require(wakeUpUnit.wakeUpAts[9] < now, \"contract haven't expired yet\");\n\n        uint256 oversleepCount = 0;\n        for(uint256 i = 0; i < 10; i++) {\n            if(!wakeUpUnit.successes[i]) {\n                oversleepCount++;\n            }\n        }\n        totalOversleepCount = totalOversleepCount.add(oversleepCount);\n\n        // delete mapping\n        delete _userAddressToWakeUpUnit[msg.sender];\n\n        // devil takes ETH\n        uint256 lostETH = oversleepCount.mul(lostETHPerOversleep());\n        totalLostETH = totalLostETH.add(lostETH);\n\n        // return deposit\n        if(lostETH < depositETHAmount) {\n            msg.sender.transfer(depositETHAmount.sub(lostETH));\n        }\n\n        // solium-disable-next-line security/no-block-members\n        emit FinishEvent(wakeUpUnit.id, uint8(oversleepCount), lostETH, uint32(now));\n    }\n\n    /**\n     * @notice\n     * This function is called by RobinHood contract\n     * RobinHood steals Devil's ETH\n     */\n    function stolen() external {\n        require(msg.sender == robinHoodAddress, \"No one can steal devil's ETH apart from Robin Hood\");\n        uint256 _stolenETH = totalLostETH;\n        totalLostETH = 0;\n        robinHoodAddress.transfer(_stolenETH);\n        emit StolenEvent(_stolenETH, uint32(now));\n    }\n\n    /**\n     * @notice\n     * getter of WakeUpUnit contract\n     */\n    function userAddressToWakeUpUnit(address _userAddress) external view returns (WakeUpUnit memory) {\n        return _userAddressToWakeUpUnit[_userAddress];\n    }\n\n    /**\n     * @notice\n     * lostETHPerOversleep function\n     *\n     * @return lost ETH amount per oversleep\n     */\n    function lostETHPerOversleep() public view returns (uint256) {\n        return depositETHAmount.div(10);\n    }\n\n    /**\n     * @return current time in Unix Time\n     */\n    function currentTime() public view returns (uint32) {\n        // solium-disable-next-line security/no-block-members\n        return uint32(now);\n    }\n}\n",
  "sourcePath": "/Users/ryoheikomiyama/src/github.com/ryokomy/wakeup-contract/contracts/TenDaysWakeUpDevil.sol",
  "compiler": {
    "name": "solc",
    "version": "0.5.0+commit.1d4f565a.Emscripten.clang"
  },
  "schemaVersion": "3.0.1",
  "updatedAt": "2019-02-27T17:01:05.354Z",
  "devdoc": {
    "author": "Ryo Komiyama <https://github.com/ryokomy>",
    "methods": {
      "constructor": {
        "params": {
          "_robinHoodAddress": "is contract address of RobinHood"
        }
      },
      "currentTime()": {
        "return": "current time in Unix Time"
      },
      "isOwner()": {
        "return": "true if `msg.sender` is the owner of the contract."
      },
      "lostETHPerOversleep()": {
        "return": "lost ETH amount per oversleep"
      },
      "owner()": {
        "return": "the address of the owner."
      },
      "register(uint32)": {
        "params": {
          "_startAt": "is the first wakeup time in Unix Time"
        }
      },
      "renounceOwnership()": {
        "details": "Allows the current owner to relinquish control of the contract."
      },
      "transferOwnership(address)": {
        "details": "Allows the current owner to transfer control of the contract to a newOwner.",
        "params": {
          "newOwner": "The address to transfer ownership to."
        }
      },
      "wakeUp(uint8)": {
        "params": {
          "_day": "is counted from 1 to 10"
        }
      }
    },
    "title": "TenDaysWakeUpDevil"
  },
  "userdoc": {
    "methods": {
      "constructor": "constructor",
      "finish()": {
        "notice": "This function make WakeUpUnit finish Overslept days are counted and Devil steal deposited ETH based on it."
      },
      "lostETHPerOversleep()": {
        "notice": "lostETHPerOversleep function"
      },
      "register(uint32)": {
        "notice": "register function deposit is needed for register"
      },
      "renounceOwnership()": {
        "notice": "Renouncing to ownership will leave the contract without an owner. It will not be possible to call the functions with the `onlyOwner` modifier anymore."
      },
      "stolen()": {
        "notice": "This function is called by RobinHood contract RobinHood steals Devil's ETH"
      },
      "userAddressToWakeUpUnit(address)": {
        "notice": "getter of WakeUpUnit contract"
      },
      "wakeUp(uint8)": {
        "notice": "wakeUp function"
      }
    }
  }
}