{
  "contractName": "TenDaysWakeUpDevil",
  "abi": [
    {
      "constant": true,
      "inputs": [],
      "name": "robinHoodAddress",
      "outputs": [
        {
          "name": "",
          "type": "address"
        }
      ],
      "payable": false,
      "stateMutability": "view",
      "type": "function"
    },
    {
      "constant": true,
      "inputs": [],
      "name": "depositETHAmount",
      "outputs": [
        {
          "name": "",
          "type": "uint256"
        }
      ],
      "payable": false,
      "stateMutability": "view",
      "type": "function"
    },
    {
      "constant": true,
      "inputs": [],
      "name": "totalOversleepCount",
      "outputs": [
        {
          "name": "",
          "type": "uint256"
        }
      ],
      "payable": false,
      "stateMutability": "view",
      "type": "function"
    },
    {
      "constant": true,
      "inputs": [],
      "name": "numberOfWakeUpUnits",
      "outputs": [
        {
          "name": "",
          "type": "uint256"
        }
      ],
      "payable": false,
      "stateMutability": "view",
      "type": "function"
    },
    {
      "constant": true,
      "inputs": [],
      "name": "totalLostETH",
      "outputs": [
        {
          "name": "",
          "type": "uint256"
        }
      ],
      "payable": false,
      "stateMutability": "view",
      "type": "function"
    },
    {
      "inputs": [
        {
          "name": "_robinHoodAddress",
          "type": "address"
        }
      ],
      "payable": false,
      "stateMutability": "nonpayable",
      "type": "constructor"
    },
    {
      "anonymous": false,
      "inputs": [
        {
          "indexed": true,
          "name": "_userAddress",
          "type": "address"
        },
        {
          "indexed": true,
          "name": "_id",
          "type": "uint256"
        },
        {
          "indexed": false,
          "name": "_startAt",
          "type": "uint32"
        }
      ],
      "name": "RegisterEvent",
      "type": "event"
    },
    {
      "anonymous": false,
      "inputs": [
        {
          "indexed": true,
          "name": "_id",
          "type": "uint256"
        },
        {
          "indexed": true,
          "name": "_day",
          "type": "uint8"
        },
        {
          "indexed": false,
          "name": "_wakeUpAt",
          "type": "uint32"
        }
      ],
      "name": "WakeUpEvent",
      "type": "event"
    },
    {
      "anonymous": false,
      "inputs": [
        {
          "indexed": true,
          "name": "_id",
          "type": "uint256"
        },
        {
          "indexed": false,
          "name": "_oversleepCount",
          "type": "uint8"
        },
        {
          "indexed": false,
          "name": "_lostETH",
          "type": "uint256"
        },
        {
          "indexed": false,
          "name": "_finishAt",
          "type": "uint32"
        }
      ],
      "name": "FinishEvent",
      "type": "event"
    },
    {
      "anonymous": false,
      "inputs": [
        {
          "indexed": false,
          "name": "_stolenETH",
          "type": "uint256"
        },
        {
          "indexed": false,
          "name": "_stolenAt",
          "type": "uint32"
        }
      ],
      "name": "StolenEvent",
      "type": "event"
    },
    {
      "constant": false,
      "inputs": [
        {
          "name": "_startAt",
          "type": "uint32"
        }
      ],
      "name": "register",
      "outputs": [],
      "payable": true,
      "stateMutability": "payable",
      "type": "function"
    },
    {
      "constant": false,
      "inputs": [
        {
          "name": "_day",
          "type": "uint8"
        }
      ],
      "name": "wakeUp",
      "outputs": [],
      "payable": false,
      "stateMutability": "nonpayable",
      "type": "function"
    },
    {
      "constant": false,
      "inputs": [],
      "name": "finish",
      "outputs": [],
      "payable": false,
      "stateMutability": "nonpayable",
      "type": "function"
    },
    {
      "constant": false,
      "inputs": [],
      "name": "stolen",
      "outputs": [],
      "payable": false,
      "stateMutability": "nonpayable",
      "type": "function"
    },
    {
      "constant": true,
      "inputs": [
        {
          "name": "_userAddress",
          "type": "address"
        }
      ],
      "name": "userAddressToWakeUpUnit",
      "outputs": [
        {
          "components": [
            {
              "name": "id",
              "type": "uint256"
            },
            {
              "name": "wakeUpAts",
              "type": "uint32[10]"
            },
            {
              "name": "successes",
              "type": "bool[10]"
            },
            {
              "name": "exists",
              "type": "bool"
            }
          ],
          "name": "",
          "type": "tuple"
        }
      ],
      "payable": false,
      "stateMutability": "view",
      "type": "function"
    },
    {
      "constant": true,
      "inputs": [],
      "name": "lostETHPerOversleep",
      "outputs": [
        {
          "name": "",
          "type": "uint256"
        }
      ],
      "payable": false,
      "stateMutability": "view",
      "type": "function"
    },
    {
      "constant": true,
      "inputs": [],
      "name": "currentTime",
      "outputs": [
        {
          "name": "",
          "type": "uint32"
        }
      ],
      "payable": false,
      "stateMutability": "view",
      "type": "function"
    }
  ],
  "bytecode": "0x6080604052600060015560006002556729a2241af62c000060035560006004553480156200002c57600080fd5b5060405160208062001c1483398101806040526200004e9190810190620000b4565b600160008190555080600660006101000a81548173ffffffffffffffffffffffffffffffffffffffff021916908373ffffffffffffffffffffffffffffffffffffffff1602179055505062000114565b6000620000ac825162000100565b905092915050565b600060208284031215620000c757600080fd5b6000620000d7848285016200009e565b91505092915050565b600073ffffffffffffffffffffffffffffffffffffffff82169050919050565b60006200010d82620000e0565b9050919050565b611af080620001246000396000f3fe6080604052600436106100ba576000357c0100000000000000000000000000000000000000000000000000000000900463ffffffff1680630af39c69146100bf578063130d7906146100fc57806314f515ad146101185780635d6fae671461012f5780635dce57761461015857806385a07678146101835780639180f7a8146101ae5780639b0c9f01146101d9578063c500f94b14610204578063d18e81b31461022f578063d56b28891461025a578063f1e6b87c14610271575b600080fd5b3480156100cb57600080fd5b506100e660048036036100e19190810190611428565b61029c565b6040516100f3919061192c565b60405180910390f35b61011660048036036101119190810190611451565b6103f6565b005b34801561012457600080fd5b5061012d610757565b005b34801561013b57600080fd5b506101566004803603610151919081019061147a565b6108c4565b005b34801561016457600080fd5b5061016d610c73565b60405161017a91906117f1565b60405180910390f35b34801561018f57600080fd5b50610198610c99565b6040516101a59190611948565b60405180910390f35b3480156101ba57600080fd5b506101c3610c9f565b6040516101d09190611948565b60405180910390f35b3480156101e557600080fd5b506101ee610ca5565b6040516101fb9190611948565b60405180910390f35b34801561021057600080fd5b50610219610cab565b6040516102269190611948565b60405180910390f35b34801561023b57600080fd5b50610244610cc8565b604051610251919061198c565b60405180910390f35b34801561026657600080fd5b5061026f610cd0565b005b34801561027d57600080fd5b506102866110bf565b6040516102939190611948565b60405180910390f35b6102a4611170565b600560008373ffffffffffffffffffffffffffffffffffffffff1673ffffffffffffffffffffffffffffffffffffffff168152602001908152602001600020608060405190810160405290816000820154815260200160018201600a806020026040519081016040528092919082600a8015610361576020028201916000905b82829054906101000a900463ffffffff1663ffffffff16815260200190600401906020826003010492830192600103820291508084116103245790505b5050505050815260200160038201600a806020026040519081016040528092919082600a80156103cb576020028201916000905b82829054906101000a900460ff161515815260200190600101906020826000010492830192600103820291508084116103955790505b505050505081526020016004820160009054906101000a900460ff1615151515815250509050919050565b600160008082825401925050819055506000805490506003543410151515610453576040517f08c379a000000000000000000000000000000000000000000000000000000000815260040161044a9061184c565b60405180910390fd5b60001515600560003373ffffffffffffffffffffffffffffffffffffffff1673ffffffffffffffffffffffffffffffffffffffff16815260200190815260200160002060040160009054906101000a900460ff1615151415156104eb576040517f08c379a00000000000000000000000000000000000000000000000000000000081526004016104e2906118ac565b60405180910390fd5b428263ffffffff1611801561050a57506206978042018263ffffffff16105b151561054b576040517f08c379a00000000000000000000000000000000000000000000000000000000081526004016105429061180c565b60405180910390fd5b61056160016004546110c590919063ffffffff16565b60048190555061056f6111a8565b6105776111cc565b61057f611170565b608060405190810160405280600454815260200184815260200183815260200160011515815250905060008090505b600a8110156105fb576201518081028663ffffffff1601826020015182600a811015156105d757fe5b602002019063ffffffff16908163ffffffff168152505080806001019150506105ae565b5080600560003373ffffffffffffffffffffffffffffffffffffffff1673ffffffffffffffffffffffffffffffffffffffff1681526020019081526020016000206000820151816000015560208201518160010190600a61065d9291906111f0565b5060408201518160030190600a610675929190611293565b5060608201518160040160006101000a81548160ff0219169083151502179055509050506003543411156106ef573373ffffffffffffffffffffffffffffffffffffffff166108fc60035434039081150290604051600060405180830381858888f193505050501580156106ed573d6000803e3d6000fd5b505b6004543373ffffffffffffffffffffffffffffffffffffffff167f45182979a4b64516cb8005d5badc8f54f09b0781111870d67994b7a97a599eab87604051610738919061198c565b60405180910390a35050506000548114151561075357600080fd5b5050565b60016000808282540192505081905550600080549050600660009054906101000a900473ffffffffffffffffffffffffffffffffffffffff1673ffffffffffffffffffffffffffffffffffffffff163373ffffffffffffffffffffffffffffffffffffffff161415156107ff576040517f08c379a00000000000000000000000000000000000000000000000000000000081526004016107f69061190c565b60405180910390fd5b600060025490506000600281905550600660009054906101000a900473ffffffffffffffffffffffffffffffffffffffff1673ffffffffffffffffffffffffffffffffffffffff166108fc829081150290604051600060405180830381858888f19350505050158015610876573d6000803e3d6000fd5b507fccf04fe83f8ceec37a4019246e2c1282be2699b868d6a14667f60405350d897d81426040516108a8929190611963565b60405180910390a150600054811415156108c157600080fd5b50565b8060ff166001111580156108dc5750600a8160ff1611155b151561091d576040517f08c379a00000000000000000000000000000000000000000000000000000000081526004016109149061186c565b60405180910390fd5b610925611170565b600560003373ffffffffffffffffffffffffffffffffffffffff1673ffffffffffffffffffffffffffffffffffffffff168152602001908152602001600020608060405190810160405290816000820154815260200160018201600a806020026040519081016040528092919082600a80156109e2576020028201916000905b82829054906101000a900463ffffffff1663ffffffff16815260200190600401906020826003010492830192600103820291508084116109a55790505b5050505050815260200160038201600a806020026040519081016040528092919082600a8015610a4c576020028201916000905b82829054906101000a900460ff16151581526020019060010190602082600001049283019260010382029150808411610a165790505b505050505081526020016004820160009054906101000a900460ff16151515158152505090506001151581606001511515141515610abf576040517f08c379a0000000000000000000000000000000000000000000000000000000008152600401610ab69061188c565b60405180910390fd5b60006001830360ff16905060001515826040015182600a81101515610ae057fe5b60200201511515141515610b29576040517f08c379a0000000000000000000000000000000000000000000000000000000008152600401610b20906118ec565b60405180910390fd5b60004261012c846020015184600a81101515610b4157fe5b60200201510363ffffffff16108015610b79575061012c836020015183600a81101515610b6a57fe5b60200201510163ffffffff1642105b9050801515610bbd576040517f08c379a0000000000000000000000000000000000000000000000000000000008152600401610bb4906118cc565b60405180910390fd5b6001600560003373ffffffffffffffffffffffffffffffffffffffff1673ffffffffffffffffffffffffffffffffffffffff16815260200190815260200160002060030183600a81101515610c0e57fe5b602091828204019190066101000a81548160ff0219169083151502179055508360ff1683600001517f1d1e360971c1bae4e8192abc37b7ee75084f7f0c4c339f2d942d56344e72cd8e42604051610c65919061198c565b60405180910390a350505050565b600660009054906101000a900473ffffffffffffffffffffffffffffffffffffffff1681565b60035481565b60015481565b60045481565b6000610cc3600a6003546110e690919063ffffffff16565b905090565b600042905090565b60016000808282540192505081905550600080549050610cee611170565b600560003373ffffffffffffffffffffffffffffffffffffffff1673ffffffffffffffffffffffffffffffffffffffff168152602001908152602001600020608060405190810160405290816000820154815260200160018201600a806020026040519081016040528092919082600a8015610dab576020028201916000905b82829054906101000a900463ffffffff1663ffffffff1681526020019060040190602082600301049283019260010382029150808411610d6e5790505b5050505050815260200160038201600a806020026040519081016040528092919082600a8015610e15576020028201916000905b82829054906101000a900460ff16151581526020019060010190602082600001049283019260010382029150808411610ddf5790505b505050505081526020016004820160009054906101000a900460ff16151515158152505090506001151581606001511515141515610e88576040517f08c379a0000000000000000000000000000000000000000000000000000000008152600401610e7f9061188c565b60405180910390fd5b4281602001516009600a81101515610e9c57fe5b602002015163ffffffff16101515610ee9576040517f08c379a0000000000000000000000000000000000000000000000000000000008152600401610ee09061182c565b60405180910390fd5b600080905060008090505b600a811015610f3057826040015181600a81101515610f0f57fe5b60200201511515610f235781806001019250505b8080600101915050610ef4565b50610f46816001546110c590919063ffffffff16565b600181905550600560003373ffffffffffffffffffffffffffffffffffffffff1673ffffffffffffffffffffffffffffffffffffffff168152602001908152602001600020600080820160009055600182016000610fa4919061132c565b600382016000610fb4919061133a565b6004820160006101000a81549060ff021916905550506000610fe6610fd7610cab565b8361111090919063ffffffff16565b9050610ffd816002546110c590919063ffffffff16565b600281905550600354811015611069573373ffffffffffffffffffffffffffffffffffffffff166108fc61103c8360035461114e90919063ffffffff16565b9081150290604051600060405180830381858888f19350505050158015611067573d6000803e3d6000fd5b505b82600001517ff9dc20bf96ca2ba7b03438afba0637f56a6c788fabad61dfc40604b5bb46eb9a8383426040516110a1939291906119a7565b60405180910390a2505050600054811415156110bc57600080fd5b50565b60025481565b60008082840190508381101515156110dc57600080fd5b8091505092915050565b600080821115156110f657600080fd5b6000828481151561110357fe5b0490508091505092915050565b6000808314156111235760009050611148565b6000828402905082848281151561113657fe5b0414151561114357600080fd5b809150505b92915050565b600082821115151561115f57600080fd5b600082840390508091505092915050565b6102c0604051908101604052806000815260200161118c611341565b8152602001611199611365565b81526020016000151581525090565b61014060405190810160405280600a90602082028038833980820191505090505090565b61014060405190810160405280600a90602082028038833980820191505090505090565b82600a6007016008900481019282156112825791602002820160005b8382111561125057835183826101000a81548163ffffffff021916908363ffffffff160217905550926020019260040160208160030104928301926001030261120c565b80156112805782816101000a81549063ffffffff0219169055600401602081600301049283019260010302611250565b505b50905061128f9190611389565b5090565b82600a601f0160209004810192821561131b5791602002820160005b838211156112ec57835183826101000a81548160ff02191690831515021790555092602001926001016020816000010492830192600103026112af565b80156113195782816101000a81549060ff02191690556001016020816000010492830192600103026112ec565b505b50905061132891906113bc565b5090565b506000815560010160009055565b5060009055565b61014060405190810160405280600a90602082028038833980820191505090505090565b61014060405190810160405280600a90602082028038833980820191505090505090565b6113b991905b808211156113b557600081816101000a81549063ffffffff02191690555060010161138f565b5090565b90565b6113e991905b808211156113e557600081816101000a81549060ff0219169055506001016113c2565b5090565b90565b60006113f88235611a87565b905092915050565b600061140c8235611a99565b905092915050565b60006114208235611aa9565b905092915050565b60006020828403121561143a57600080fd5b6000611448848285016113ec565b91505092915050565b60006020828403121561146357600080fd5b600061147184828501611400565b91505092915050565b60006020828403121561148c57600080fd5b600061149a84828501611414565b91505092915050565b6114ac81611a22565b82525050565b6114bb816119f2565b6114c4826119de565b60005b828110156114f6576114da858351611548565b6114e382611a08565b91506020850194506001810190506114c7565b5050505050565b611506816119fd565b61150f826119e8565b60005b82811015611541576115258583516117d3565b61152e82611a15565b9150602085019450600181019050611512565b5050505050565b61155181611a34565b82525050565b6000601282527f696e76616c69642073746172742074696d6500000000000000000000000000006020830152604082019050919050565b6000601c82527f636f6e747261637420686176656e2774206578706972656420796574000000006020830152604082019050919050565b6000601982527f6465706f73697420455448206973206e6f7420656e6f756768000000000000006020830152604082019050919050565b6000601982527f676976656e20646179206973206e6f7420696e2072616e6765000000000000006020830152604082019050919050565b6000601282527f7573657220646f65736e277420657869737400000000000000000000000000006020830152604082019050919050565b6000601a82527f7573657220697320616c726561647920726567697374657265640000000000006020830152604082019050919050565b6000601682527f77616b6575702074696d6520697320696e76616c6964000000000000000000006020830152604082019050919050565b6000601c82527f616c72656164792073756363656564656420746f2077616b65207570000000006020830152604082019050919050565b6000603282527f4e6f206f6e652063616e20737465616c20646576696c2773204554482061706160208301527f72742066726f6d20526f62696e20486f6f6400000000000000000000000000006040830152606082019050919050565b6102c08201600082015161178360008501826117c4565b50602082015161179660208501826114fd565b5060408201516117aa6101608501826114b2565b5060608201516117be6102a0850182611548565b50505050565b6117cd81611a60565b82525050565b6117dc81611a6a565b82525050565b6117eb81611a7a565b82525050565b600060208201905061180660008301846114a3565b92915050565b6000602082019050818103600083015261182581611557565b9050919050565b600060208201905081810360008301526118458161158e565b9050919050565b60006020820190508181036000830152611865816115c5565b9050919050565b60006020820190508181036000830152611885816115fc565b9050919050565b600060208201905081810360008301526118a581611633565b9050919050565b600060208201905081810360008301526118c58161166a565b9050919050565b600060208201905081810360008301526118e5816116a1565b9050919050565b60006020820190508181036000830152611905816116d8565b9050919050565b600060208201905081810360008301526119258161170f565b9050919050565b60006102c082019050611942600083018461176c565b92915050565b600060208201905061195d60008301846117c4565b92915050565b600060408201905061197860008301856117c4565b61198560208301846117d3565b9392505050565b60006020820190506119a160008301846117d3565b92915050565b60006060820190506119bc60008301866117e2565b6119c960208301856117c4565b6119d660408301846117d3565b949350505050565b6000819050919050565b6000819050919050565b6000600a9050919050565b6000600a9050919050565b6000602082019050919050565b6000602082019050919050565b6000611a2d82611a40565b9050919050565b60008115159050919050565b600073ffffffffffffffffffffffffffffffffffffffff82169050919050565b6000819050919050565b600063ffffffff82169050919050565b600060ff82169050919050565b6000611a9282611a40565b9050919050565b600063ffffffff82169050919050565b600060ff8216905091905056fea265627a7a7230582008a203901717138301f4184e0caeab3f650cb86766c60702fb54d736a458a0e46c6578706572696d656e74616cf50037",
  "source": "pragma solidity >=0.4.99 <0.6.0;\npragma experimental ABIEncoderV2;\n\nimport \"openzeppelin-solidity/contracts/utils/ReentrancyGuard.sol\";\nimport \"openzeppelin-solidity/contracts/math/SafeMath.sol\";\nimport \"./Devil.sol\";\n\n/**\n * @title TenDaysWakeUpDevil\n * @author Ryo Komiyama <https://github.com/ryokomy>\n */\ncontract TenDaysWakeUpDevil is ReentrancyGuard, Devil {\n\n    using SafeMath for uint256;\n\n    /**\n     * @notice\n     * struct for wakeup data\n     */\n    struct WakeUpUnit {\n        uint256 id;\n        uint32[10] wakeUpAts;\n        bool[10] successes;\n        bool exists;\n    }\n\n    event RegisterEvent(\n        address indexed _userAddress,\n        uint256 indexed _id,\n        uint32 _startAt\n    );\n    event WakeUpEvent(\n        uint256 indexed _id,\n        uint8 indexed _day,\n        uint32 _wakeUpAt\n    );\n    event FinishEvent(\n        uint256 indexed _id,\n        uint8 _oversleepCount,\n        uint256 _lostETH,\n        uint32 _finishAt\n    );\n    event StolenEvent(\n        uint256 _stolenETH,\n        uint32 _stolenAt\n    );\n\n    uint256 public totalOversleepCount = 0;\n\n    /**\n     * @notice\n     * total ETH amount lost by users\n     */\n    uint256 public totalLostETH = 0;\n\n    /**\n     * @notice\n     * deposit ETH amount for register\n     * this ETH is progressively lost when user fails to waek up\n     */\n    uint256 public depositETHAmount = 3 ether;\n\n    uint256 public numberOfWakeUpUnits = 0;\n\n    /**\n     * @notice\n     * mapping from user address to wakeup data\n     */\n    mapping(address => WakeUpUnit) internal _userAddressToWakeUpUnit;\n\n    /**\n     * @notice\n     * This is the address of RobinHood who can steal Devil's ETH\n     */\n    address payable public robinHoodAddress;\n\n\n    /**\n     * @notice\n     * constructor\n     *\n     * @param _robinHoodAddress is contract address of RobinHood\n     */\n    constructor(address payable _robinHoodAddress) public {\n        robinHoodAddress = _robinHoodAddress;\n    }\n\n    /**\n     * @notice\n     * register function\n     * deposit is needed for register\n     *\n     * @param _startAt is the first wakeup time in Unix Time\n     */\n    function register(uint32 _startAt) external nonReentrant() payable\n    {\n        // higher value than depositETHAmont is needed for register\n        require(msg.value >= depositETHAmount, \"deposit ETH is not enough\");\n\n        // one address can register only once (TODO: fix this limitation)\n        require(_userAddressToWakeUpUnit[msg.sender].exists == false, \"user is already registered\");\n\n        // check startAt\n        // solium-disable-next-line security/no-block-members\n        require((_startAt > now) && (_startAt < now + 5 days), \"invalid start time\");\n\n        // increment numberOfWakeUpUnits\n        numberOfWakeUpUnits = numberOfWakeUpUnits.add(1);\n\n        // create WakeUpUnit\n        uint32[10] memory wakeUpAts;\n        bool[10] memory successes;\n        WakeUpUnit memory wakeUpUnit = WakeUpUnit({\n            id: numberOfWakeUpUnits,\n            wakeUpAts: wakeUpAts,\n            successes: successes,\n            exists: true\n        });\n        for (uint i = 0; i < 10; i++) {\n            wakeUpUnit.wakeUpAts[i] = uint32(_startAt + i * (1 days));\n        }\n        _userAddressToWakeUpUnit[msg.sender] = wakeUpUnit;\n\n        // return extra amount of ETH\n        if (msg.value > depositETHAmount) {\n            msg.sender.transfer(msg.value - depositETHAmount);\n        }\n\n        emit RegisterEvent(msg.sender, numberOfWakeUpUnits, _startAt);\n    }\n\n    /**\n     * @notice\n     * wakeUp function\n     *\n     * @param _day is counted from 1 to 10\n     */\n    function wakeUp(uint8 _day) external\n    {\n        require(1 <= _day && _day <= 10, \"given day is not in range\");\n\n        WakeUpUnit memory wakeUpUnit = _userAddressToWakeUpUnit[msg.sender];\n        require(wakeUpUnit.exists == true, \"user doesn't exist\");\n\n        uint256 dayIndex = _day - 1;\n        require(wakeUpUnit.successes[dayIndex] == false, \"already succeeded to wake up\");\n\n        // solium-disable-next-line security/no-block-members\n        bool timeCondition = (wakeUpUnit.wakeUpAts[dayIndex] - 5 minutes < now) && (now < wakeUpUnit.wakeUpAts[dayIndex] + 5 minutes);\n        require(timeCondition, \"wakeup time is invalid\");\n\n        // success to wake up\n        _userAddressToWakeUpUnit[msg.sender].successes[dayIndex] = true;\n\n        // solium-disable-next-line security/no-block-members\n        emit WakeUpEvent(wakeUpUnit.id, _day, uint32(now));\n    }\n\n    /**\n     * @notice\n     * This function make WakeUpUnit finish\n     * Overslept days are counted and Devil steal deposited ETH based on it.\n     */\n    function finish() external nonReentrant()\n    {\n        WakeUpUnit memory wakeUpUnit = _userAddressToWakeUpUnit[msg.sender];\n        require(wakeUpUnit.exists == true, \"user doesn't exist\");\n        // solium-disable-next-line security/no-block-members\n        require(wakeUpUnit.wakeUpAts[9] < now, \"contract haven't expired yet\");\n\n        uint256 oversleepCount = 0;\n        for(uint256 i = 0; i < 10; i++) {\n            if(!wakeUpUnit.successes[i]) {\n                oversleepCount++;\n            }\n        }\n        totalOversleepCount = totalOversleepCount.add(oversleepCount);\n\n        // delete mapping\n        delete _userAddressToWakeUpUnit[msg.sender];\n\n        // devil takes ETH\n        uint256 lostETH = oversleepCount.mul(lostETHPerOversleep());\n        totalLostETH = totalLostETH.add(lostETH);\n\n        // return deposit\n        if(lostETH < depositETHAmount) {\n            msg.sender.transfer(depositETHAmount.sub(lostETH));\n        }\n\n        // solium-disable-next-line security/no-block-members\n        emit FinishEvent(wakeUpUnit.id, uint8(oversleepCount), lostETH, uint32(now));\n    }\n\n    /**\n     * @notice\n     * This function is called by RobinHood contract\n     * RobinHood steals Devil's ETH\n     */\n    function stolen() external nonReentrant() {\n        require(msg.sender == robinHoodAddress, \"No one can steal devil's ETH apart from Robin Hood\");\n        uint256 _stolenETH = totalLostETH;\n        totalLostETH = 0;\n        robinHoodAddress.transfer(_stolenETH);\n        emit StolenEvent(_stolenETH, uint32(now));\n    }\n\n    /**\n     * @notice\n     * getter of WakeUpUnit contract\n     */\n    function userAddressToWakeUpUnit(address _userAddress) external view returns (WakeUpUnit memory) {\n        return _userAddressToWakeUpUnit[_userAddress];\n    }\n\n    /**\n     * @notice\n     * lostETHPerOversleep function\n     *\n     * @return lost ETH amount per oversleep\n     */\n    function lostETHPerOversleep() public view returns (uint256) {\n        return depositETHAmount.div(10);\n    }\n\n    /**\n     * @return current time in Unix Time\n     */\n    function currentTime() public view returns (uint32) {\n        // solium-disable-next-line security/no-block-members\n        return uint32(now);\n    }\n}\n",
  "sourcePath": "/Users/ryoheikomiyama/src/github.com/ryokomy/wakeup-contract/contracts/TenDaysWakeUpDevil.sol",
  "compiler": {
    "name": "solc",
    "version": "0.5.0+commit.1d4f565a.Emscripten.clang"
  },
  "schemaVersion": "3.0.1",
  "updatedAt": "2019-03-04T08:31:23.295Z",
  "devdoc": {
    "author": "Ryo Komiyama <https://github.com/ryokomy>",
    "methods": {
      "constructor": {
        "params": {
          "_robinHoodAddress": "is contract address of RobinHood"
        }
      },
      "currentTime()": {
        "return": "current time in Unix Time"
      },
      "lostETHPerOversleep()": {
        "return": "lost ETH amount per oversleep"
      },
      "register(uint32)": {
        "params": {
          "_startAt": "is the first wakeup time in Unix Time"
        }
      },
      "wakeUp(uint8)": {
        "params": {
          "_day": "is counted from 1 to 10"
        }
      }
    },
    "title": "TenDaysWakeUpDevil"
  },
  "userdoc": {
    "methods": {
      "constructor": "constructor",
      "finish()": {
        "notice": "This function make WakeUpUnit finish Overslept days are counted and Devil steal deposited ETH based on it."
      },
      "lostETHPerOversleep()": {
        "notice": "lostETHPerOversleep function"
      },
      "register(uint32)": {
        "notice": "register function deposit is needed for register"
      },
      "stolen()": {
        "notice": "This function is called by RobinHood contract RobinHood steals Devil's ETH"
      },
      "userAddressToWakeUpUnit(address)": {
        "notice": "getter of WakeUpUnit contract"
      },
      "wakeUp(uint8)": {
        "notice": "wakeUp function"
      }
    }
  }
}