{
  "contractName": "TenDaysWakeUpDevil",
  "abi": [
    {
      "constant": false,
      "inputs": [],
      "name": "renounceOwnership",
      "outputs": [],
      "payable": false,
      "stateMutability": "nonpayable",
      "type": "function"
    },
    {
      "constant": true,
      "inputs": [],
      "name": "depositETHAmount",
      "outputs": [
        {
          "name": "",
          "type": "uint256"
        }
      ],
      "payable": false,
      "stateMutability": "view",
      "type": "function"
    },
    {
      "constant": true,
      "inputs": [],
      "name": "owner",
      "outputs": [
        {
          "name": "",
          "type": "address"
        }
      ],
      "payable": false,
      "stateMutability": "view",
      "type": "function"
    },
    {
      "constant": true,
      "inputs": [],
      "name": "isOwner",
      "outputs": [
        {
          "name": "",
          "type": "bool"
        }
      ],
      "payable": false,
      "stateMutability": "view",
      "type": "function"
    },
    {
      "constant": true,
      "inputs": [],
      "name": "numberOfWakeUpUnits",
      "outputs": [
        {
          "name": "",
          "type": "uint256"
        }
      ],
      "payable": false,
      "stateMutability": "view",
      "type": "function"
    },
    {
      "constant": true,
      "inputs": [],
      "name": "totalLostETH",
      "outputs": [
        {
          "name": "",
          "type": "uint256"
        }
      ],
      "payable": false,
      "stateMutability": "view",
      "type": "function"
    },
    {
      "constant": false,
      "inputs": [
        {
          "name": "newOwner",
          "type": "address"
        }
      ],
      "name": "transferOwnership",
      "outputs": [],
      "payable": false,
      "stateMutability": "nonpayable",
      "type": "function"
    },
    {
      "inputs": [],
      "payable": false,
      "stateMutability": "nonpayable",
      "type": "constructor"
    },
    {
      "anonymous": false,
      "inputs": [
        {
          "indexed": true,
          "name": "_userAddress",
          "type": "address"
        },
        {
          "indexed": true,
          "name": "_id",
          "type": "uint256"
        },
        {
          "indexed": false,
          "name": "_startAt",
          "type": "uint32"
        }
      ],
      "name": "RegisterEvent",
      "type": "event"
    },
    {
      "anonymous": false,
      "inputs": [
        {
          "indexed": true,
          "name": "_id",
          "type": "uint256"
        },
        {
          "indexed": true,
          "name": "_day",
          "type": "uint8"
        },
        {
          "indexed": false,
          "name": "_wakeUpAt",
          "type": "uint32"
        }
      ],
      "name": "WakeUpEvent",
      "type": "event"
    },
    {
      "anonymous": false,
      "inputs": [
        {
          "indexed": true,
          "name": "previousOwner",
          "type": "address"
        },
        {
          "indexed": true,
          "name": "newOwner",
          "type": "address"
        }
      ],
      "name": "OwnershipTransferred",
      "type": "event"
    },
    {
      "constant": false,
      "inputs": [
        {
          "name": "_startAt",
          "type": "uint32"
        }
      ],
      "name": "register",
      "outputs": [],
      "payable": true,
      "stateMutability": "payable",
      "type": "function"
    },
    {
      "constant": false,
      "inputs": [
        {
          "name": "_day",
          "type": "uint8"
        }
      ],
      "name": "wakeUp",
      "outputs": [],
      "payable": false,
      "stateMutability": "nonpayable",
      "type": "function"
    },
    {
      "constant": true,
      "inputs": [
        {
          "name": "_userAddress",
          "type": "address"
        }
      ],
      "name": "userAddressToWakeUpUnit",
      "outputs": [
        {
          "components": [
            {
              "name": "id",
              "type": "uint256"
            },
            {
              "name": "wakeUpAts",
              "type": "uint32[10]"
            },
            {
              "name": "successes",
              "type": "bool[10]"
            },
            {
              "name": "exists",
              "type": "bool"
            }
          ],
          "name": "",
          "type": "tuple"
        }
      ],
      "payable": false,
      "stateMutability": "view",
      "type": "function"
    },
    {
      "constant": true,
      "inputs": [],
      "name": "lostEHTPerFailure",
      "outputs": [
        {
          "name": "",
          "type": "uint256"
        }
      ],
      "payable": false,
      "stateMutability": "view",
      "type": "function"
    },
    {
      "constant": true,
      "inputs": [],
      "name": "currentTime",
      "outputs": [
        {
          "name": "",
          "type": "uint32"
        }
      ],
      "payable": false,
      "stateMutability": "view",
      "type": "function"
    }
  ],
  "bytecode": "0x608060405260006002556729a2241af62c0000600355600060045534801561002657600080fd5b50336000806101000a81548173ffffffffffffffffffffffffffffffffffffffff021916908373ffffffffffffffffffffffffffffffffffffffff1602179055506000809054906101000a900473ffffffffffffffffffffffffffffffffffffffff1673ffffffffffffffffffffffffffffffffffffffff16600073ffffffffffffffffffffffffffffffffffffffff167f8be0079c531659141344cd1fd0a4f28419497f9722a3daafe3b4186f6b6457e060405160405180910390a36001808190555061160b806100f96000396000f3fe6080604052600436106100ba576000357c0100000000000000000000000000000000000000000000000000000000900463ffffffff1680630af39c69146100bf578063130d7906146100fc5780635d6fae6714610118578063715018a61461014157806385a07678146101585780638da5cb5b146101835780638f32d59b146101ae5780639b0c9f01146101d9578063d18e81b314610204578063e78c4ba21461022f578063f1e6b87c1461025a578063f2fde38b14610285575b600080fd5b3480156100cb57600080fd5b506100e660048036036100e19190810190611078565b6102ae565b6040516100f391906114b4565b60405180910390f35b610116600480360361011191908101906110a1565b610408565b005b34801561012457600080fd5b5061013f600480360361013a91908101906110ca565b61076a565b005b34801561014d57600080fd5b50610156610b19565b005b34801561016457600080fd5b5061016d610beb565b60405161017a91906114d0565b60405180910390f35b34801561018f57600080fd5b50610198610bf1565b6040516101a5919061139e565b60405180910390f35b3480156101ba57600080fd5b506101c3610c1a565b6040516101d091906113b9565b60405180910390f35b3480156101e557600080fd5b506101ee610c71565b6040516101fb91906114d0565b60405180910390f35b34801561021057600080fd5b50610219610c77565b60405161022691906114eb565b60405180910390f35b34801561023b57600080fd5b50610244610c7f565b60405161025191906114d0565b60405180910390f35b34801561026657600080fd5b5061026f610c95565b60405161027c91906114d0565b60405180910390f35b34801561029157600080fd5b506102ac60048036036102a79190810190611078565b610c9b565b005b6102b6610dd5565b600560008373ffffffffffffffffffffffffffffffffffffffff1673ffffffffffffffffffffffffffffffffffffffff168152602001908152602001600020608060405190810160405290816000820154815260200160018201600a806020026040519081016040528092919082600a8015610373576020028201916000905b82829054906101000a900463ffffffff1663ffffffff16815260200190600401906020826003010492830192600103820291508084116103365790505b5050505050815260200160038201600a806020026040519081016040528092919082600a80156103dd576020028201916000905b82829054906101000a900460ff161515815260200190600101906020826000010492830192600103820291508084116103a75790505b505050505081526020016004820160009054906101000a900460ff1615151515815250509050919050565b60018060008282540192505081905550600060015490506003543410151515610466576040517f08c379a000000000000000000000000000000000000000000000000000000000815260040161045d906113f4565b60405180910390fd5b60001515600560003373ffffffffffffffffffffffffffffffffffffffff1673ffffffffffffffffffffffffffffffffffffffff16815260200190815260200160002060040160009054906101000a900460ff1615151415156104fe576040517f08c379a00000000000000000000000000000000000000000000000000000000081526004016104f590611454565b60405180910390fd5b428263ffffffff1611801561051d57506206978042018263ffffffff16105b151561055e576040517f08c379a0000000000000000000000000000000000000000000000000000000008152600401610555906113d4565b60405180910390fd5b6105746001600454610cba90919063ffffffff16565b600481905550610582610e0d565b61058a610e31565b610592610dd5565b608060405190810160405280600454815260200184815260200183815260200160011515815250905060008090505b600a81101561060e576201518081028663ffffffff1601826020015182600a811015156105ea57fe5b602002019063ffffffff16908163ffffffff168152505080806001019150506105c1565b5080600560003373ffffffffffffffffffffffffffffffffffffffff1673ffffffffffffffffffffffffffffffffffffffff1681526020019081526020016000206000820151816000015560208201518160010190600a610670929190610e55565b5060408201518160030190600a610688929190610ef8565b5060608201518160040160006101000a81548160ff021916908315150217905550905050600354341115610702573373ffffffffffffffffffffffffffffffffffffffff166108fc60035434039081150290604051600060405180830381858888f19350505050158015610700573d6000803e3d6000fd5b505b6004543373ffffffffffffffffffffffffffffffffffffffff167f45182979a4b64516cb8005d5badc8f54f09b0781111870d67994b7a97a599eab8760405161074b91906114eb565b60405180910390a35050506001548114151561076657600080fd5b5050565b8060ff166001111580156107825750600a8160ff1611155b15156107c3576040517f08c379a00000000000000000000000000000000000000000000000000000000081526004016107ba90611414565b60405180910390fd5b6107cb610dd5565b600560003373ffffffffffffffffffffffffffffffffffffffff1673ffffffffffffffffffffffffffffffffffffffff168152602001908152602001600020608060405190810160405290816000820154815260200160018201600a806020026040519081016040528092919082600a8015610888576020028201916000905b82829054906101000a900463ffffffff1663ffffffff168152602001906004019060208260030104928301926001038202915080841161084b5790505b5050505050815260200160038201600a806020026040519081016040528092919082600a80156108f2576020028201916000905b82829054906101000a900460ff161515815260200190600101906020826000010492830192600103820291508084116108bc5790505b505050505081526020016004820160009054906101000a900460ff16151515158152505090506001151581606001511515141515610965576040517f08c379a000000000000000000000000000000000000000000000000000000000815260040161095c90611434565b60405180910390fd5b60006001830360ff16905060001515826040015182600a8110151561098657fe5b602002015115151415156109cf576040517f08c379a00000000000000000000000000000000000000000000000000000000081526004016109c690611494565b60405180910390fd5b60004261012c846020015184600a811015156109e757fe5b60200201510363ffffffff16108015610a1f575061012c836020015183600a81101515610a1057fe5b60200201510163ffffffff1642105b9050801515610a63576040517f08c379a0000000000000000000000000000000000000000000000000000000008152600401610a5a90611474565b60405180910390fd5b6001600560003373ffffffffffffffffffffffffffffffffffffffff1673ffffffffffffffffffffffffffffffffffffffff16815260200190815260200160002060030183600a81101515610ab457fe5b602091828204019190066101000a81548160ff0219169083151502179055508360ff1683600001517f1d1e360971c1bae4e8192abc37b7ee75084f7f0c4c339f2d942d56344e72cd8e42604051610b0b91906114eb565b60405180910390a350505050565b610b21610c1a565b1515610b2c57600080fd5b600073ffffffffffffffffffffffffffffffffffffffff166000809054906101000a900473ffffffffffffffffffffffffffffffffffffffff1673ffffffffffffffffffffffffffffffffffffffff167f8be0079c531659141344cd1fd0a4f28419497f9722a3daafe3b4186f6b6457e060405160405180910390a360008060006101000a81548173ffffffffffffffffffffffffffffffffffffffff021916908373ffffffffffffffffffffffffffffffffffffffff160217905550565b60035481565b60008060009054906101000a900473ffffffffffffffffffffffffffffffffffffffff16905090565b60008060009054906101000a900473ffffffffffffffffffffffffffffffffffffffff1673ffffffffffffffffffffffffffffffffffffffff163373ffffffffffffffffffffffffffffffffffffffff1614905090565b60045481565b600042905090565b6000600a600354811515610c8f57fe5b04905090565b60025481565b610ca3610c1a565b1515610cae57600080fd5b610cb781610cdb565b50565b6000808284019050838110151515610cd157600080fd5b8091505092915050565b600073ffffffffffffffffffffffffffffffffffffffff168173ffffffffffffffffffffffffffffffffffffffff1614151515610d1757600080fd5b8073ffffffffffffffffffffffffffffffffffffffff166000809054906101000a900473ffffffffffffffffffffffffffffffffffffffff1673ffffffffffffffffffffffffffffffffffffffff167f8be0079c531659141344cd1fd0a4f28419497f9722a3daafe3b4186f6b6457e060405160405180910390a3806000806101000a81548173ffffffffffffffffffffffffffffffffffffffff021916908373ffffffffffffffffffffffffffffffffffffffff16021790555050565b6102c06040519081016040528060008152602001610df1610f91565b8152602001610dfe610fb5565b81526020016000151581525090565b61014060405190810160405280600a90602082028038833980820191505090505090565b61014060405190810160405280600a90602082028038833980820191505090505090565b82600a600701600890048101928215610ee75791602002820160005b83821115610eb557835183826101000a81548163ffffffff021916908363ffffffff1602179055509260200192600401602081600301049283019260010302610e71565b8015610ee55782816101000a81549063ffffffff0219169055600401602081600301049283019260010302610eb5565b505b509050610ef49190610fd9565b5090565b82600a601f01602090048101928215610f805791602002820160005b83821115610f5157835183826101000a81548160ff0219169083151502179055509260200192600101602081600001049283019260010302610f14565b8015610f7e5782816101000a81549060ff0219169055600101602081600001049283019260010302610f51565b505b509050610f8d919061100c565b5090565b61014060405190810160405280600a90602082028038833980820191505090505090565b61014060405190810160405280600a90602082028038833980820191505090505090565b61100991905b8082111561100557600081816101000a81549063ffffffff021916905550600101610fdf565b5090565b90565b61103991905b8082111561103557600081816101000a81549060ff021916905550600101611012565b5090565b90565b600061104882356115a2565b905092915050565b600061105c82356115b4565b905092915050565b600061107082356115c4565b905092915050565b60006020828403121561108a57600080fd5b60006110988482850161103c565b91505092915050565b6000602082840312156110b357600080fd5b60006110c184828501611050565b91505092915050565b6000602082840312156110dc57600080fd5b60006110ea84828501611064565b91505092915050565b6110fc8161154a565b82525050565b61110b8161151a565b61111482611506565b60005b828110156111465761112a858351611198565b61113382611530565b9150602085019450600181019050611117565b5050505050565b61115681611525565b61115f82611510565b60005b828110156111915761117585835161138f565b61117e8261153d565b9150602085019450600181019050611162565b5050505050565b6111a18161155c565b82525050565b6000601282527f696e76616c69642073746172742074696d6500000000000000000000000000006020830152604082019050919050565b6000601982527f6465706f73697420455448206973206e6f7420656e6f756768000000000000006020830152604082019050919050565b6000601982527f676976656e20646179206973206e6f7420696e2072616e6765000000000000006020830152604082019050919050565b6000601282527f7573657220646f65736e277420657869737400000000000000000000000000006020830152604082019050919050565b6000601a82527f7573657220697320616c726561647920726567697374657265640000000000006020830152604082019050919050565b6000601682527f77616b6575702074696d6520697320696e76616c6964000000000000000000006020830152604082019050919050565b6000601c82527f616c72656164792073756363656564656420746f2077616b65207570000000006020830152604082019050919050565b6102c08201600082015161133f6000850182611380565b506020820151611352602085018261114d565b506040820151611366610160850182611102565b50606082015161137a6102a0850182611198565b50505050565b61138981611588565b82525050565b61139881611592565b82525050565b60006020820190506113b360008301846110f3565b92915050565b60006020820190506113ce6000830184611198565b92915050565b600060208201905081810360008301526113ed816111a7565b9050919050565b6000602082019050818103600083015261140d816111de565b9050919050565b6000602082019050818103600083015261142d81611215565b9050919050565b6000602082019050818103600083015261144d8161124c565b9050919050565b6000602082019050818103600083015261146d81611283565b9050919050565b6000602082019050818103600083015261148d816112ba565b9050919050565b600060208201905081810360008301526114ad816112f1565b9050919050565b60006102c0820190506114ca6000830184611328565b92915050565b60006020820190506114e56000830184611380565b92915050565b6000602082019050611500600083018461138f565b92915050565b6000819050919050565b6000819050919050565b6000600a9050919050565b6000600a9050919050565b6000602082019050919050565b6000602082019050919050565b600061155582611568565b9050919050565b60008115159050919050565b600073ffffffffffffffffffffffffffffffffffffffff82169050919050565b6000819050919050565b600063ffffffff82169050919050565b60006115ad82611568565b9050919050565b600063ffffffff82169050919050565b600060ff8216905091905056fea265627a7a72305820264a43f3c4afb8012fdd1e034a8e648c56b38070ad31118cc85e9561efccfda16c6578706572696d656e74616cf50037",
  "source": "pragma solidity >=0.4.99 <0.6.0;\npragma experimental ABIEncoderV2;\n\nimport \"openzeppelin-solidity/contracts/ownership/Ownable.sol\";\nimport \"openzeppelin-solidity/contracts/utils/ReentrancyGuard.sol\";\nimport \"openzeppelin-solidity/contracts/math/SafeMath.sol\";\n\n/**\n * @title TenDaysWakeUpDevil\n * @author Ryo Komiyama <https://github.com/ryokomy>\n */\ncontract TenDaysWakeUpDevil is Ownable, ReentrancyGuard {\n\n    using SafeMath for uint256;\n\n    /**\n     * @notice\n     * struct for wakeup data\n     */\n    struct WakeUpUnit {\n        uint256 id;\n        uint32[10] wakeUpAts;\n        bool[10] successes;\n        bool exists;\n    }\n\n    event RegisterEvent(\n        address indexed _userAddress,\n        uint256 indexed _id,\n        uint32 _startAt\n    );\n    event WakeUpEvent(\n        uint256 indexed _id,\n        uint8 indexed _day,\n        uint32 _wakeUpAt\n    );\n\n    /**\n     * @notice\n     * total ETH amount lost by users\n     */\n    uint256 public totalLostETH = 0;\n\n    /**\n     * @notice\n     * deposit ETH amount for register\n     * this ETH is progressively lost when user fails to waek up\n     */\n    uint256 public depositETHAmount = 3 ether;\n\n    uint256 public numberOfWakeUpUnits = 0;\n\n    /**\n     * @notice\n     * mapping from user address to wakeup data\n     */\n    mapping(address => WakeUpUnit) internal _userAddressToWakeUpUnit;\n\n    /**\n     * @notice\n     * constructor\n     */\n    constructor() public {\n    }\n\n    /**\n     * @notice\n     * register function\n     * deposit is needed for register\n     *\n     * @param _startAt is the first wakeup time in Unix Time\n     */\n    function register(uint32 _startAt) external nonReentrant() payable\n    {\n        // higher value than depositETHAmont is needed for register\n        require(msg.value >= depositETHAmount, \"deposit ETH is not enough\");\n\n        // one address can register only once (TODO: fix this limitation)\n        require(_userAddressToWakeUpUnit[msg.sender].exists == false, \"user is already registered\");\n\n        // check startAt\n        // solium-disable-next-line security/no-block-members\n        require((_startAt > now) && (_startAt < now + 5 days), \"invalid start time\");\n\n        // increment numberOfWakeUpUnits\n        numberOfWakeUpUnits = numberOfWakeUpUnits.add(1);\n\n        // create WakeUpUnit\n        uint32[10] memory wakeUpAts;\n        bool[10] memory successes;\n        WakeUpUnit memory wakeUpUnit = WakeUpUnit({\n            id: numberOfWakeUpUnits,\n            wakeUpAts: wakeUpAts,\n            successes: successes,\n            exists: true\n        });\n        for (uint i = 0; i < 10; i++) {\n            wakeUpUnit.wakeUpAts[i] = uint32(_startAt + i * (1 days));\n        }\n        _userAddressToWakeUpUnit[msg.sender] = wakeUpUnit;\n\n        // return extra amount of ETH\n        if (msg.value > depositETHAmount) {\n            msg.sender.transfer(msg.value - depositETHAmount);\n        }\n\n        emit RegisterEvent(msg.sender, numberOfWakeUpUnits, _startAt);\n    }\n\n    /**\n     * @notice\n     * wakeUp function\n     *\n     * @param _day is counted from 1 to 10\n     */\n    function wakeUp(uint8 _day) external\n    {\n        require(1 <= _day && _day <= 10, \"given day is not in range\");\n\n        WakeUpUnit memory wakeUpUnit = _userAddressToWakeUpUnit[msg.sender];\n        require(wakeUpUnit.exists == true, \"user doesn't exist\");\n\n        uint256 dayIndex = _day - 1;\n        require(wakeUpUnit.successes[dayIndex] == false, \"already succeeded to wake up\");\n\n        // solium-disable-next-line security/no-block-members\n        bool timeCondition = (wakeUpUnit.wakeUpAts[dayIndex] - 5 minutes < now) && (now < wakeUpUnit.wakeUpAts[dayIndex] + 5 minutes);\n        require(timeCondition, \"wakeup time is invalid\");\n\n        // success to wake up\n        _userAddressToWakeUpUnit[msg.sender].successes[dayIndex] = true;\n\n        // solium-disable-next-line security/no-block-members\n        emit WakeUpEvent(wakeUpUnit.id, _day, uint32(now));\n    }\n\n\n\n    // function RobinHood(address _userAddress) external {\n        \n    // }\n\n    /**\n     */\n    function userAddressToWakeUpUnit(address _userAddress) external view returns (WakeUpUnit memory) {\n        return _userAddressToWakeUpUnit[_userAddress];\n    }\n\n    /**\n     * @notice\n     * lostEHTPerFailure function\n     *\n     * @return lost ETH amount per failure\n     */\n    function lostEHTPerFailure() public view returns (uint256) {\n        return (depositETHAmount / 10);\n    }\n\n    /**\n     * @return current time in Unix Time\n     */\n    function currentTime() public view returns (uint32) {\n        // solium-disable-next-line security/no-block-members\n        return uint32(now);\n    }\n}\n",
  "sourcePath": "/Users/ryoheikomiyama/src/github.com/ryokomy/wakeup-contract/contracts/TenDaysWakeUpDevil.sol",
  "compiler": {
    "name": "solc",
    "version": "0.5.0+commit.1d4f565a.Emscripten.clang"
  },
  "schemaVersion": "3.0.1",
  "updatedAt": "2019-02-27T06:21:17.708Z",
  "devdoc": {
    "author": "Ryo Komiyama <https://github.com/ryokomy>",
    "methods": {
      "currentTime()": {
        "return": "current time in Unix Time"
      },
      "isOwner()": {
        "return": "true if `msg.sender` is the owner of the contract."
      },
      "lostEHTPerFailure()": {
        "return": "lost ETH amount per failure"
      },
      "owner()": {
        "return": "the address of the owner."
      },
      "register(uint32)": {
        "params": {
          "_startAt": "is the first wakeup time in Unix Time"
        }
      },
      "renounceOwnership()": {
        "details": "Allows the current owner to relinquish control of the contract."
      },
      "transferOwnership(address)": {
        "details": "Allows the current owner to transfer control of the contract to a newOwner.",
        "params": {
          "newOwner": "The address to transfer ownership to."
        }
      },
      "wakeUp(uint8)": {
        "params": {
          "_day": "is counted from 1 to 10"
        }
      }
    },
    "title": "TenDaysWakeUpDevil"
  },
  "userdoc": {
    "methods": {
      "constructor": "constructor",
      "lostEHTPerFailure()": {
        "notice": "lostEHTPerFailure function"
      },
      "register(uint32)": {
        "notice": "register function deposit is needed for register"
      },
      "renounceOwnership()": {
        "notice": "Renouncing to ownership will leave the contract without an owner. It will not be possible to call the functions with the `onlyOwner` modifier anymore."
      },
      "wakeUp(uint8)": {
        "notice": "wakeUp function"
      }
    }
  }
}