{
  "contractName": "TenDaysWakeUpDevil",
  "abi": [
    {
      "constant": false,
      "inputs": [],
      "name": "renounceOwnership",
      "outputs": [],
      "payable": false,
      "stateMutability": "nonpayable",
      "type": "function"
    },
    {
      "constant": true,
      "inputs": [],
      "name": "depositETHAmount",
      "outputs": [
        {
          "name": "",
          "type": "uint256"
        }
      ],
      "payable": false,
      "stateMutability": "view",
      "type": "function"
    },
    {
      "constant": true,
      "inputs": [],
      "name": "owner",
      "outputs": [
        {
          "name": "",
          "type": "address"
        }
      ],
      "payable": false,
      "stateMutability": "view",
      "type": "function"
    },
    {
      "constant": true,
      "inputs": [],
      "name": "isOwner",
      "outputs": [
        {
          "name": "",
          "type": "bool"
        }
      ],
      "payable": false,
      "stateMutability": "view",
      "type": "function"
    },
    {
      "constant": true,
      "inputs": [],
      "name": "totalOversleepCount",
      "outputs": [
        {
          "name": "",
          "type": "uint256"
        }
      ],
      "payable": false,
      "stateMutability": "view",
      "type": "function"
    },
    {
      "constant": true,
      "inputs": [],
      "name": "numberOfWakeUpUnits",
      "outputs": [
        {
          "name": "",
          "type": "uint256"
        }
      ],
      "payable": false,
      "stateMutability": "view",
      "type": "function"
    },
    {
      "constant": true,
      "inputs": [],
      "name": "totalLostETH",
      "outputs": [
        {
          "name": "",
          "type": "uint256"
        }
      ],
      "payable": false,
      "stateMutability": "view",
      "type": "function"
    },
    {
      "constant": false,
      "inputs": [
        {
          "name": "newOwner",
          "type": "address"
        }
      ],
      "name": "transferOwnership",
      "outputs": [],
      "payable": false,
      "stateMutability": "nonpayable",
      "type": "function"
    },
    {
      "inputs": [],
      "payable": false,
      "stateMutability": "nonpayable",
      "type": "constructor"
    },
    {
      "anonymous": false,
      "inputs": [
        {
          "indexed": true,
          "name": "_userAddress",
          "type": "address"
        },
        {
          "indexed": true,
          "name": "_id",
          "type": "uint256"
        },
        {
          "indexed": false,
          "name": "_startAt",
          "type": "uint32"
        }
      ],
      "name": "RegisterEvent",
      "type": "event"
    },
    {
      "anonymous": false,
      "inputs": [
        {
          "indexed": true,
          "name": "_id",
          "type": "uint256"
        },
        {
          "indexed": true,
          "name": "_day",
          "type": "uint8"
        },
        {
          "indexed": false,
          "name": "_wakeUpAt",
          "type": "uint32"
        }
      ],
      "name": "WakeUpEvent",
      "type": "event"
    },
    {
      "anonymous": false,
      "inputs": [
        {
          "indexed": true,
          "name": "_id",
          "type": "uint256"
        },
        {
          "indexed": false,
          "name": "_oversleepCount",
          "type": "uint8"
        },
        {
          "indexed": false,
          "name": "_lostETH",
          "type": "uint256"
        },
        {
          "indexed": false,
          "name": "_finishAt",
          "type": "uint32"
        }
      ],
      "name": "FinishEvent",
      "type": "event"
    },
    {
      "anonymous": false,
      "inputs": [
        {
          "indexed": true,
          "name": "previousOwner",
          "type": "address"
        },
        {
          "indexed": true,
          "name": "newOwner",
          "type": "address"
        }
      ],
      "name": "OwnershipTransferred",
      "type": "event"
    },
    {
      "constant": false,
      "inputs": [
        {
          "name": "_startAt",
          "type": "uint32"
        }
      ],
      "name": "register",
      "outputs": [],
      "payable": true,
      "stateMutability": "payable",
      "type": "function"
    },
    {
      "constant": false,
      "inputs": [
        {
          "name": "_day",
          "type": "uint8"
        }
      ],
      "name": "wakeUp",
      "outputs": [],
      "payable": false,
      "stateMutability": "nonpayable",
      "type": "function"
    },
    {
      "constant": false,
      "inputs": [],
      "name": "finish",
      "outputs": [],
      "payable": false,
      "stateMutability": "nonpayable",
      "type": "function"
    },
    {
      "constant": true,
      "inputs": [
        {
          "name": "_userAddress",
          "type": "address"
        }
      ],
      "name": "userAddressToWakeUpUnit",
      "outputs": [
        {
          "components": [
            {
              "name": "id",
              "type": "uint256"
            },
            {
              "name": "wakeUpAts",
              "type": "uint32[10]"
            },
            {
              "name": "successes",
              "type": "bool[10]"
            },
            {
              "name": "exists",
              "type": "bool"
            }
          ],
          "name": "",
          "type": "tuple"
        }
      ],
      "payable": false,
      "stateMutability": "view",
      "type": "function"
    },
    {
      "constant": true,
      "inputs": [],
      "name": "lostETHPerOversleep",
      "outputs": [
        {
          "name": "",
          "type": "uint256"
        }
      ],
      "payable": false,
      "stateMutability": "view",
      "type": "function"
    },
    {
      "constant": true,
      "inputs": [],
      "name": "currentTime",
      "outputs": [
        {
          "name": "",
          "type": "uint32"
        }
      ],
      "payable": false,
      "stateMutability": "view",
      "type": "function"
    }
  ],
  "bytecode": "0x6080604052600060025560006003556729a2241af62c0000600455600060055534801561002b57600080fd5b50336000806101000a81548173ffffffffffffffffffffffffffffffffffffffff021916908373ffffffffffffffffffffffffffffffffffffffff1602179055506000809054906101000a900473ffffffffffffffffffffffffffffffffffffffff1673ffffffffffffffffffffffffffffffffffffffff16600073ffffffffffffffffffffffffffffffffffffffff167f8be0079c531659141344cd1fd0a4f28419497f9722a3daafe3b4186f6b6457e060405160405180910390a360018081905550611baa806100fe6000396000f3fe6080604052600436106100d0576000357c0100000000000000000000000000000000000000000000000000000000900463ffffffff1680630af39c69146100d5578063130d7906146101125780635d6fae671461012e578063715018a61461015757806385a076781461016e5780638da5cb5b146101995780638f32d59b146101c45780639180f7a8146101ef5780639b0c9f011461021a578063c500f94b14610245578063d18e81b314610270578063d56b28891461029b578063f1e6b87c146102b2578063f2fde38b146102dd575b600080fd5b3480156100e157600080fd5b506100fc60048036036100f7919081019061156d565b610306565b6040516101099190611a0f565b60405180910390f35b61012c60048036036101279190810190611596565b610460565b005b34801561013a57600080fd5b50610155600480360361015091908101906115bf565b6107c2565b005b34801561016357600080fd5b5061016c610b71565b005b34801561017a57600080fd5b50610183610c43565b6040516101909190611a2b565b60405180910390f35b3480156101a557600080fd5b506101ae610c49565b6040516101bb91906118d9565b60405180910390f35b3480156101d057600080fd5b506101d9610c72565b6040516101e691906118f4565b60405180910390f35b3480156101fb57600080fd5b50610204610cc9565b6040516102119190611a2b565b60405180910390f35b34801561022657600080fd5b5061022f610ccf565b60405161023c9190611a2b565b60405180910390f35b34801561025157600080fd5b5061025a610cd5565b6040516102679190611a2b565b60405180910390f35b34801561027c57600080fd5b50610285610cf2565b6040516102929190611a46565b60405180910390f35b3480156102a757600080fd5b506102b0610cfa565b005b3480156102be57600080fd5b506102c76110eb565b6040516102d49190611a2b565b60405180910390f35b3480156102e957600080fd5b5061030460048036036102ff919081019061156d565b6110f1565b005b61030e6112b5565b600660008373ffffffffffffffffffffffffffffffffffffffff1673ffffffffffffffffffffffffffffffffffffffff168152602001908152602001600020608060405190810160405290816000820154815260200160018201600a806020026040519081016040528092919082600a80156103cb576020028201916000905b82829054906101000a900463ffffffff1663ffffffff168152602001906004019060208260030104928301926001038202915080841161038e5790505b5050505050815260200160038201600a806020026040519081016040528092919082600a8015610435576020028201916000905b82829054906101000a900460ff161515815260200190600101906020826000010492830192600103820291508084116103ff5790505b505050505081526020016004820160009054906101000a900460ff1615151515815250509050919050565b600180600082825401925050819055506000600154905060045434101515156104be576040517f08c379a00000000000000000000000000000000000000000000000000000000081526004016104b59061194f565b60405180910390fd5b60001515600660003373ffffffffffffffffffffffffffffffffffffffff1673ffffffffffffffffffffffffffffffffffffffff16815260200190815260200160002060040160009054906101000a900460ff161515141515610556576040517f08c379a000000000000000000000000000000000000000000000000000000000815260040161054d906119af565b60405180910390fd5b428263ffffffff1611801561057557506206978042018263ffffffff16105b15156105b6576040517f08c379a00000000000000000000000000000000000000000000000000000000081526004016105ad9061190f565b60405180910390fd5b6105cc600160055461111090919063ffffffff16565b6005819055506105da6112ed565b6105e2611311565b6105ea6112b5565b608060405190810160405280600554815260200184815260200183815260200160011515815250905060008090505b600a811015610666576201518081028663ffffffff1601826020015182600a8110151561064257fe5b602002019063ffffffff16908163ffffffff16815250508080600101915050610619565b5080600660003373ffffffffffffffffffffffffffffffffffffffff1673ffffffffffffffffffffffffffffffffffffffff1681526020019081526020016000206000820151816000015560208201518160010190600a6106c8929190611335565b5060408201518160030190600a6106e09291906113d8565b5060608201518160040160006101000a81548160ff02191690831515021790555090505060045434111561075a573373ffffffffffffffffffffffffffffffffffffffff166108fc60045434039081150290604051600060405180830381858888f19350505050158015610758573d6000803e3d6000fd5b505b6005543373ffffffffffffffffffffffffffffffffffffffff167f45182979a4b64516cb8005d5badc8f54f09b0781111870d67994b7a97a599eab876040516107a39190611a46565b60405180910390a3505050600154811415156107be57600080fd5b5050565b8060ff166001111580156107da5750600a8160ff1611155b151561081b576040517f08c379a00000000000000000000000000000000000000000000000000000000081526004016108129061196f565b60405180910390fd5b6108236112b5565b600660003373ffffffffffffffffffffffffffffffffffffffff1673ffffffffffffffffffffffffffffffffffffffff168152602001908152602001600020608060405190810160405290816000820154815260200160018201600a806020026040519081016040528092919082600a80156108e0576020028201916000905b82829054906101000a900463ffffffff1663ffffffff16815260200190600401906020826003010492830192600103820291508084116108a35790505b5050505050815260200160038201600a806020026040519081016040528092919082600a801561094a576020028201916000905b82829054906101000a900460ff161515815260200190600101906020826000010492830192600103820291508084116109145790505b505050505081526020016004820160009054906101000a900460ff161515151581525050905060011515816060015115151415156109bd576040517f08c379a00000000000000000000000000000000000000000000000000000000081526004016109b49061198f565b60405180910390fd5b60006001830360ff16905060001515826040015182600a811015156109de57fe5b60200201511515141515610a27576040517f08c379a0000000000000000000000000000000000000000000000000000000008152600401610a1e906119ef565b60405180910390fd5b60004261012c846020015184600a81101515610a3f57fe5b60200201510363ffffffff16108015610a77575061012c836020015183600a81101515610a6857fe5b60200201510163ffffffff1642105b9050801515610abb576040517f08c379a0000000000000000000000000000000000000000000000000000000008152600401610ab2906119cf565b60405180910390fd5b6001600660003373ffffffffffffffffffffffffffffffffffffffff1673ffffffffffffffffffffffffffffffffffffffff16815260200190815260200160002060030183600a81101515610b0c57fe5b602091828204019190066101000a81548160ff0219169083151502179055508360ff1683600001517f1d1e360971c1bae4e8192abc37b7ee75084f7f0c4c339f2d942d56344e72cd8e42604051610b639190611a46565b60405180910390a350505050565b610b79610c72565b1515610b8457600080fd5b600073ffffffffffffffffffffffffffffffffffffffff166000809054906101000a900473ffffffffffffffffffffffffffffffffffffffff1673ffffffffffffffffffffffffffffffffffffffff167f8be0079c531659141344cd1fd0a4f28419497f9722a3daafe3b4186f6b6457e060405160405180910390a360008060006101000a81548173ffffffffffffffffffffffffffffffffffffffff021916908373ffffffffffffffffffffffffffffffffffffffff160217905550565b60045481565b60008060009054906101000a900473ffffffffffffffffffffffffffffffffffffffff16905090565b60008060009054906101000a900473ffffffffffffffffffffffffffffffffffffffff1673ffffffffffffffffffffffffffffffffffffffff163373ffffffffffffffffffffffffffffffffffffffff1614905090565b60025481565b60055481565b6000610ced600a60045461113190919063ffffffff16565b905090565b600042905090565b6001806000828254019250508190555060006001549050610d196112b5565b600660003373ffffffffffffffffffffffffffffffffffffffff1673ffffffffffffffffffffffffffffffffffffffff168152602001908152602001600020608060405190810160405290816000820154815260200160018201600a806020026040519081016040528092919082600a8015610dd6576020028201916000905b82829054906101000a900463ffffffff1663ffffffff1681526020019060040190602082600301049283019260010382029150808411610d995790505b5050505050815260200160038201600a806020026040519081016040528092919082600a8015610e40576020028201916000905b82829054906101000a900460ff16151581526020019060010190602082600001049283019260010382029150808411610e0a5790505b505050505081526020016004820160009054906101000a900460ff16151515158152505090506001151581606001511515141515610eb3576040517f08c379a0000000000000000000000000000000000000000000000000000000008152600401610eaa9061198f565b60405180910390fd5b4281602001516009600a81101515610ec757fe5b602002015163ffffffff16101515610f14576040517f08c379a0000000000000000000000000000000000000000000000000000000008152600401610f0b9061192f565b60405180910390fd5b600080905060008090505b600a811015610f5b57826040015181600a81101515610f3a57fe5b60200201511515610f4e5781806001019250505b8080600101915050610f1f565b50610f718160025461111090919063ffffffff16565b600281905550600660003373ffffffffffffffffffffffffffffffffffffffff1673ffffffffffffffffffffffffffffffffffffffff168152602001908152602001600020600080820160009055600182016000610fcf9190611471565b600382016000610fdf919061147f565b6004820160006101000a81549060ff021916905550506000611011611002610cd5565b8361115b90919063ffffffff16565b90506110288160035461111090919063ffffffff16565b60038190555060045481141515611095573373ffffffffffffffffffffffffffffffffffffffff166108fc6110688360045461119990919063ffffffff16565b9081150290604051600060405180830381858888f19350505050158015611093573d6000803e3d6000fd5b505b82600001517ff9dc20bf96ca2ba7b03438afba0637f56a6c788fabad61dfc40604b5bb46eb9a8383426040516110cd93929190611a61565b60405180910390a2505050600154811415156110e857600080fd5b50565b60035481565b6110f9610c72565b151561110457600080fd5b61110d816111bb565b50565b600080828401905083811015151561112757600080fd5b8091505092915050565b6000808211151561114157600080fd5b6000828481151561114e57fe5b0490508091505092915050565b60008083141561116e5760009050611193565b6000828402905082848281151561118157fe5b0414151561118e57600080fd5b809150505b92915050565b60008282111515156111aa57600080fd5b600082840390508091505092915050565b600073ffffffffffffffffffffffffffffffffffffffff168173ffffffffffffffffffffffffffffffffffffffff16141515156111f757600080fd5b8073ffffffffffffffffffffffffffffffffffffffff166000809054906101000a900473ffffffffffffffffffffffffffffffffffffffff1673ffffffffffffffffffffffffffffffffffffffff167f8be0079c531659141344cd1fd0a4f28419497f9722a3daafe3b4186f6b6457e060405160405180910390a3806000806101000a81548173ffffffffffffffffffffffffffffffffffffffff021916908373ffffffffffffffffffffffffffffffffffffffff16021790555050565b6102c060405190810160405280600081526020016112d1611486565b81526020016112de6114aa565b81526020016000151581525090565b61014060405190810160405280600a90602082028038833980820191505090505090565b61014060405190810160405280600a90602082028038833980820191505090505090565b82600a6007016008900481019282156113c75791602002820160005b8382111561139557835183826101000a81548163ffffffff021916908363ffffffff1602179055509260200192600401602081600301049283019260010302611351565b80156113c55782816101000a81549063ffffffff0219169055600401602081600301049283019260010302611395565b505b5090506113d491906114ce565b5090565b82600a601f016020900481019282156114605791602002820160005b8382111561143157835183826101000a81548160ff02191690831515021790555092602001926001016020816000010492830192600103026113f4565b801561145e5782816101000a81549060ff0219169055600101602081600001049283019260010302611431565b505b50905061146d9190611501565b5090565b506000815560010160009055565b5060009055565b61014060405190810160405280600a90602082028038833980820191505090505090565b61014060405190810160405280600a90602082028038833980820191505090505090565b6114fe91905b808211156114fa57600081816101000a81549063ffffffff0219169055506001016114d4565b5090565b90565b61152e91905b8082111561152a57600081816101000a81549060ff021916905550600101611507565b5090565b90565b600061153d8235611b41565b905092915050565b60006115518235611b53565b905092915050565b60006115658235611b63565b905092915050565b60006020828403121561157f57600080fd5b600061158d84828501611531565b91505092915050565b6000602082840312156115a857600080fd5b60006115b684828501611545565b91505092915050565b6000602082840312156115d157600080fd5b60006115df84828501611559565b91505092915050565b6115f181611adc565b82525050565b61160081611aac565b61160982611a98565b60005b8281101561163b5761161f85835161168d565b61162882611ac2565b915060208501945060018101905061160c565b5050505050565b61164b81611ab7565b61165482611aa2565b60005b828110156116865761166a8583516118bb565b61167382611acf565b9150602085019450600181019050611657565b5050505050565b61169681611aee565b82525050565b6000601282527f696e76616c69642073746172742074696d6500000000000000000000000000006020830152604082019050919050565b6000601c82527f636f6e747261637420686176656e2774206578706972656420796574000000006020830152604082019050919050565b6000601982527f6465706f73697420455448206973206e6f7420656e6f756768000000000000006020830152604082019050919050565b6000601982527f676976656e20646179206973206e6f7420696e2072616e6765000000000000006020830152604082019050919050565b6000601282527f7573657220646f65736e277420657869737400000000000000000000000000006020830152604082019050919050565b6000601a82527f7573657220697320616c726561647920726567697374657265640000000000006020830152604082019050919050565b6000601682527f77616b6575702074696d6520697320696e76616c6964000000000000000000006020830152604082019050919050565b6000601c82527f616c72656164792073756363656564656420746f2077616b65207570000000006020830152604082019050919050565b6102c08201600082015161186b60008501826118ac565b50602082015161187e6020850182611642565b5060408201516118926101608501826115f7565b5060608201516118a66102a085018261168d565b50505050565b6118b581611b1a565b82525050565b6118c481611b24565b82525050565b6118d381611b34565b82525050565b60006020820190506118ee60008301846115e8565b92915050565b6000602082019050611909600083018461168d565b92915050565b600060208201905081810360008301526119288161169c565b9050919050565b60006020820190508181036000830152611948816116d3565b9050919050565b600060208201905081810360008301526119688161170a565b9050919050565b6000602082019050818103600083015261198881611741565b9050919050565b600060208201905081810360008301526119a881611778565b9050919050565b600060208201905081810360008301526119c8816117af565b9050919050565b600060208201905081810360008301526119e8816117e6565b9050919050565b60006020820190508181036000830152611a088161181d565b9050919050565b60006102c082019050611a256000830184611854565b92915050565b6000602082019050611a4060008301846118ac565b92915050565b6000602082019050611a5b60008301846118bb565b92915050565b6000606082019050611a7660008301866118ca565b611a8360208301856118ac565b611a9060408301846118bb565b949350505050565b6000819050919050565b6000819050919050565b6000600a9050919050565b6000600a9050919050565b6000602082019050919050565b6000602082019050919050565b6000611ae782611afa565b9050919050565b60008115159050919050565b600073ffffffffffffffffffffffffffffffffffffffff82169050919050565b6000819050919050565b600063ffffffff82169050919050565b600060ff82169050919050565b6000611b4c82611afa565b9050919050565b600063ffffffff82169050919050565b600060ff8216905091905056fea265627a7a72305820d0df10eefc687464052d15421c37872be704eda0eb673cd2ee25b04d928ee5a76c6578706572696d656e74616cf50037",
  "source": "pragma solidity >=0.4.99 <0.6.0;\npragma experimental ABIEncoderV2;\n\nimport \"openzeppelin-solidity/contracts/ownership/Ownable.sol\";\nimport \"openzeppelin-solidity/contracts/utils/ReentrancyGuard.sol\";\nimport \"openzeppelin-solidity/contracts/math/SafeMath.sol\";\n\n/**\n * @title TenDaysWakeUpDevil\n * @author Ryo Komiyama <https://github.com/ryokomy>\n */\ncontract TenDaysWakeUpDevil is Ownable, ReentrancyGuard {\n\n    using SafeMath for uint256;\n\n    /**\n     * @notice\n     * struct for wakeup data\n     */\n    struct WakeUpUnit {\n        uint256 id;\n        uint32[10] wakeUpAts;\n        bool[10] successes;\n        bool exists;\n    }\n\n    event RegisterEvent(\n        address indexed _userAddress,\n        uint256 indexed _id,\n        uint32 _startAt\n    );\n    event WakeUpEvent(\n        uint256 indexed _id,\n        uint8 indexed _day,\n        uint32 _wakeUpAt\n    );\n    event FinishEvent(\n        uint256 indexed _id,\n        uint8 _oversleepCount,\n        uint256 _lostETH,\n        uint32 _finishAt\n    );\n\n    uint256 public totalOversleepCount = 0;\n\n    /**\n     * @notice\n     * total ETH amount lost by users\n     */\n    uint256 public totalLostETH = 0;\n\n    /**\n     * @notice\n     * deposit ETH amount for register\n     * this ETH is progressively lost when user fails to waek up\n     */\n    uint256 public depositETHAmount = 3 ether;\n\n    uint256 public numberOfWakeUpUnits = 0;\n\n    /**\n     * @notice\n     * mapping from user address to wakeup data\n     */\n    mapping(address => WakeUpUnit) internal _userAddressToWakeUpUnit;\n\n    /**\n     * @notice\n     * constructor\n     */\n    constructor() public {\n    }\n\n    /**\n     * @notice\n     * register function\n     * deposit is needed for register\n     *\n     * @param _startAt is the first wakeup time in Unix Time\n     */\n    function register(uint32 _startAt) external nonReentrant() payable\n    {\n        // higher value than depositETHAmont is needed for register\n        require(msg.value >= depositETHAmount, \"deposit ETH is not enough\");\n\n        // one address can register only once (TODO: fix this limitation)\n        require(_userAddressToWakeUpUnit[msg.sender].exists == false, \"user is already registered\");\n\n        // check startAt\n        // solium-disable-next-line security/no-block-members\n        require((_startAt > now) && (_startAt < now + 5 days), \"invalid start time\");\n\n        // increment numberOfWakeUpUnits\n        numberOfWakeUpUnits = numberOfWakeUpUnits.add(1);\n\n        // create WakeUpUnit\n        uint32[10] memory wakeUpAts;\n        bool[10] memory successes;\n        WakeUpUnit memory wakeUpUnit = WakeUpUnit({\n            id: numberOfWakeUpUnits,\n            wakeUpAts: wakeUpAts,\n            successes: successes,\n            exists: true\n        });\n        for (uint i = 0; i < 10; i++) {\n            wakeUpUnit.wakeUpAts[i] = uint32(_startAt + i * (1 days));\n        }\n        _userAddressToWakeUpUnit[msg.sender] = wakeUpUnit;\n\n        // return extra amount of ETH\n        if (msg.value > depositETHAmount) {\n            msg.sender.transfer(msg.value - depositETHAmount);\n        }\n\n        emit RegisterEvent(msg.sender, numberOfWakeUpUnits, _startAt);\n    }\n\n    /**\n     * @notice\n     * wakeUp function\n     *\n     * @param _day is counted from 1 to 10\n     */\n    function wakeUp(uint8 _day) external\n    {\n        require(1 <= _day && _day <= 10, \"given day is not in range\");\n\n        WakeUpUnit memory wakeUpUnit = _userAddressToWakeUpUnit[msg.sender];\n        require(wakeUpUnit.exists == true, \"user doesn't exist\");\n\n        uint256 dayIndex = _day - 1;\n        require(wakeUpUnit.successes[dayIndex] == false, \"already succeeded to wake up\");\n\n        // solium-disable-next-line security/no-block-members\n        bool timeCondition = (wakeUpUnit.wakeUpAts[dayIndex] - 5 minutes < now) && (now < wakeUpUnit.wakeUpAts[dayIndex] + 5 minutes);\n        require(timeCondition, \"wakeup time is invalid\");\n\n        // success to wake up\n        _userAddressToWakeUpUnit[msg.sender].successes[dayIndex] = true;\n\n        // solium-disable-next-line security/no-block-members\n        emit WakeUpEvent(wakeUpUnit.id, _day, uint32(now));\n    }\n\n    /**\n     * @notice\n     * finish function\n     */\n    function finish() nonReentrant() external\n    {\n        WakeUpUnit memory wakeUpUnit = _userAddressToWakeUpUnit[msg.sender];\n        require(wakeUpUnit.exists == true, \"user doesn't exist\");\n        // solium-disable-next-line security/no-block-members\n        require(wakeUpUnit.wakeUpAts[9] < now, \"contract haven't expired yet\");\n\n        uint256 oversleepCount = 0;\n        for(uint256 i = 0; i < 10; i++) {\n            if(!wakeUpUnit.successes[i]) {\n                oversleepCount++;\n            }\n        }\n        totalOversleepCount = totalOversleepCount.add(oversleepCount);\n\n        // delete mapping\n        delete _userAddressToWakeUpUnit[msg.sender];\n\n        // devil takes ETH\n        uint256 lostETH = oversleepCount.mul(lostETHPerOversleep());\n        totalLostETH = totalLostETH.add(lostETH);\n\n        // return deposit\n        if(lostETH != depositETHAmount) {\n            msg.sender.transfer(depositETHAmount.sub(lostETH));\n        }\n\n        // solium-disable-next-line security/no-block-members\n        emit FinishEvent(wakeUpUnit.id, uint8(oversleepCount), lostETH, uint32(now));\n    }\n\n\n\n    // function RobinHood(address _userAddress) external {\n        \n    // }\n\n    /**\n     */\n    function userAddressToWakeUpUnit(address _userAddress) external view returns (WakeUpUnit memory) {\n        return _userAddressToWakeUpUnit[_userAddress];\n    }\n\n    /**\n     * @notice\n     * lostETHPerOversleep function\n     *\n     * @return lost ETH amount per oversleep\n     */\n    function lostETHPerOversleep() public view returns (uint256) {\n        return depositETHAmount.div(10);\n    }\n\n    /**\n     * @return current time in Unix Time\n     */\n    function currentTime() public view returns (uint32) {\n        // solium-disable-next-line security/no-block-members\n        return uint32(now);\n    }\n}\n",
  "sourcePath": "/Users/ryoheikomiyama/src/github.com/ryokomy/wakeup-contract/contracts/TenDaysWakeUpDevil.sol",
  "compiler": {
    "name": "solc",
    "version": "0.5.0+commit.1d4f565a.Emscripten.clang"
  },
  "schemaVersion": "3.0.1",
  "updatedAt": "2019-02-27T12:00:31.509Z",
  "devdoc": {
    "author": "Ryo Komiyama <https://github.com/ryokomy>",
    "methods": {
      "currentTime()": {
        "return": "current time in Unix Time"
      },
      "isOwner()": {
        "return": "true if `msg.sender` is the owner of the contract."
      },
      "lostETHPerOversleep()": {
        "return": "lost ETH amount per oversleep"
      },
      "owner()": {
        "return": "the address of the owner."
      },
      "register(uint32)": {
        "params": {
          "_startAt": "is the first wakeup time in Unix Time"
        }
      },
      "renounceOwnership()": {
        "details": "Allows the current owner to relinquish control of the contract."
      },
      "transferOwnership(address)": {
        "details": "Allows the current owner to transfer control of the contract to a newOwner.",
        "params": {
          "newOwner": "The address to transfer ownership to."
        }
      },
      "wakeUp(uint8)": {
        "params": {
          "_day": "is counted from 1 to 10"
        }
      }
    },
    "title": "TenDaysWakeUpDevil"
  },
  "userdoc": {
    "methods": {
      "constructor": "constructor",
      "finish()": {
        "notice": "finish function"
      },
      "lostETHPerOversleep()": {
        "notice": "lostETHPerOversleep function"
      },
      "register(uint32)": {
        "notice": "register function deposit is needed for register"
      },
      "renounceOwnership()": {
        "notice": "Renouncing to ownership will leave the contract without an owner. It will not be possible to call the functions with the `onlyOwner` modifier anymore."
      },
      "wakeUp(uint8)": {
        "notice": "wakeUp function"
      }
    }
  }
}