{
  "contractName": "TenDaysWakeUpDevil",
  "abi": [
    {
      "constant": false,
      "inputs": [],
      "name": "renounceOwnership",
      "outputs": [],
      "payable": false,
      "stateMutability": "nonpayable",
      "type": "function"
    },
    {
      "constant": true,
      "inputs": [],
      "name": "numberOfUsers",
      "outputs": [
        {
          "name": "",
          "type": "uint16"
        }
      ],
      "payable": false,
      "stateMutability": "view",
      "type": "function"
    },
    {
      "constant": true,
      "inputs": [],
      "name": "depositETHAmount",
      "outputs": [
        {
          "name": "",
          "type": "uint256"
        }
      ],
      "payable": false,
      "stateMutability": "view",
      "type": "function"
    },
    {
      "constant": true,
      "inputs": [],
      "name": "owner",
      "outputs": [
        {
          "name": "",
          "type": "address"
        }
      ],
      "payable": false,
      "stateMutability": "view",
      "type": "function"
    },
    {
      "constant": true,
      "inputs": [],
      "name": "isOwner",
      "outputs": [
        {
          "name": "",
          "type": "bool"
        }
      ],
      "payable": false,
      "stateMutability": "view",
      "type": "function"
    },
    {
      "constant": true,
      "inputs": [],
      "name": "totalLostETH",
      "outputs": [
        {
          "name": "",
          "type": "uint256"
        }
      ],
      "payable": false,
      "stateMutability": "view",
      "type": "function"
    },
    {
      "constant": false,
      "inputs": [
        {
          "name": "newOwner",
          "type": "address"
        }
      ],
      "name": "transferOwnership",
      "outputs": [],
      "payable": false,
      "stateMutability": "nonpayable",
      "type": "function"
    },
    {
      "inputs": [],
      "payable": false,
      "stateMutability": "nonpayable",
      "type": "constructor"
    },
    {
      "anonymous": false,
      "inputs": [
        {
          "indexed": true,
          "name": "_userAddress",
          "type": "address"
        },
        {
          "indexed": false,
          "name": "_startAt",
          "type": "uint32"
        }
      ],
      "name": "RegisterEvent",
      "type": "event"
    },
    {
      "anonymous": false,
      "inputs": [
        {
          "indexed": true,
          "name": "previousOwner",
          "type": "address"
        },
        {
          "indexed": true,
          "name": "newOwner",
          "type": "address"
        }
      ],
      "name": "OwnershipTransferred",
      "type": "event"
    },
    {
      "constant": false,
      "inputs": [
        {
          "name": "startAt",
          "type": "uint32"
        }
      ],
      "name": "register",
      "outputs": [],
      "payable": true,
      "stateMutability": "payable",
      "type": "function"
    },
    {
      "constant": true,
      "inputs": [
        {
          "name": "_userAddress",
          "type": "address"
        }
      ],
      "name": "userAddressToWakeUps",
      "outputs": [
        {
          "components": [
            {
              "name": "userId",
              "type": "uint16"
            },
            {
              "name": "successCount",
              "type": "uint8"
            },
            {
              "name": "withdrawCount",
              "type": "uint8"
            },
            {
              "name": "wakeUpAts",
              "type": "uint32[10]"
            },
            {
              "name": "successes",
              "type": "bool[10]"
            },
            {
              "name": "exists",
              "type": "bool"
            }
          ],
          "name": "",
          "type": "tuple"
        }
      ],
      "payable": false,
      "stateMutability": "view",
      "type": "function"
    },
    {
      "constant": true,
      "inputs": [],
      "name": "lostEHTPerFailure",
      "outputs": [
        {
          "name": "",
          "type": "uint256"
        }
      ],
      "payable": false,
      "stateMutability": "view",
      "type": "function"
    },
    {
      "constant": true,
      "inputs": [],
      "name": "currentTime",
      "outputs": [
        {
          "name": "",
          "type": "uint32"
        }
      ],
      "payable": false,
      "stateMutability": "view",
      "type": "function"
    }
  ],
  "bytecode": "0x608060405260006002556729a2241af62c00006003556000600460006101000a81548161ffff021916908361ffff16021790555034801561003f57600080fd5b50336000806101000a81548173ffffffffffffffffffffffffffffffffffffffff021916908373ffffffffffffffffffffffffffffffffffffffff1602179055506000809054906101000a900473ffffffffffffffffffffffffffffffffffffffff1673ffffffffffffffffffffffffffffffffffffffff16600073ffffffffffffffffffffffffffffffffffffffff167f8be0079c531659141344cd1fd0a4f28419497f9722a3daafe3b4186f6b6457e060405160405180910390a3600180819055506112c9806101126000396000f3fe6080604052600436106100af576000357c0100000000000000000000000000000000000000000000000000000000900463ffffffff168063130d7906146100b457806367438210146100d0578063715018a61461010d57806375ce46a71461012457806385a076781461014f5780638da5cb5b1461017a5780638f32d59b146101a5578063d18e81b3146101d0578063e78c4ba2146101fb578063f1e6b87c14610226578063f2fde38b14610251575b600080fd5b6100ce60048036036100c99190810190610e20565b61027a565b005b3480156100dc57600080fd5b506100f760048036036100f29190810190610df7565b61069e565b6040516101049190611149565b60405180910390f35b34801561011957600080fd5b50610122610848565b005b34801561013057600080fd5b5061013961091a565b6040516101469190611165565b60405180910390f35b34801561015b57600080fd5b5061016461092e565b6040516101719190611180565b60405180910390f35b34801561018657600080fd5b5061018f610934565b60405161019c9190611093565b60405180910390f35b3480156101b157600080fd5b506101ba61095d565b6040516101c791906110ae565b60405180910390f35b3480156101dc57600080fd5b506101e56109b4565b6040516101f2919061119b565b60405180910390f35b34801561020757600080fd5b506102106109bc565b60405161021d9190611180565b60405180910390f35b34801561023257600080fd5b5061023b6109d2565b6040516102489190611180565b60405180910390f35b34801561025d57600080fd5b5061027860048036036102739190810190610df7565b6109d8565b005b600180600082825401925050819055506000600154905060035434101515156102d8576040517f08c379a00000000000000000000000000000000000000000000000000000000081526004016102cf90611109565b60405180910390fd5b60001515600660003373ffffffffffffffffffffffffffffffffffffffff1673ffffffffffffffffffffffffffffffffffffffff16815260200190815260200160002060040160009054906101000a900460ff161515141515610370576040517f08c379a000000000000000000000000000000000000000000000000000000000815260040161036790611129565b60405180910390fd5b428263ffffffff1611801561038f57506206978042018263ffffffff16105b15156103d0576040517f08c379a00000000000000000000000000000000000000000000000000000000081526004016103c7906110c9565b60405180910390fd5b6103f86001600460009054906101000a900461ffff1661ffff166109f790919063ffffffff16565b600460006101000a81548161ffff021916908361ffff1602179055503360056000600460009054906101000a900461ffff1661ffff1661ffff16815260200190815260200160002060006101000a81548173ffffffffffffffffffffffffffffffffffffffff021916908373ffffffffffffffffffffffffffffffffffffffff160217905550610486610b50565b61048e610b74565b610496610b98565b60c060405190810160405280600460009054906101000a900461ffff1661ffff168152602001600060ff168152602001600060ff16815260200184815260200183815260200160011515815250905060008090505b600a811015610538576201518081028663ffffffff1601826060015182600a8110151561051457fe5b602002019063ffffffff16908163ffffffff168152505080806001019150506104eb565b5080600660003373ffffffffffffffffffffffffffffffffffffffff1673ffffffffffffffffffffffffffffffffffffffff16815260200190815260200160002060008201518160000160006101000a81548161ffff021916908361ffff16021790555060208201518160000160026101000a81548160ff021916908360ff16021790555060408201518160000160036101000a81548160ff021916908360ff16021790555060608201518160010190600a6105f5929190610be8565b5060808201518160030190600a61060d929190610c8b565b5060a08201518160040160006101000a81548160ff021916908315150217905550905050600354341115610687573373ffffffffffffffffffffffffffffffffffffffff166108fc60035434039081150290604051600060405180830381858888f19350505050158015610685573d6000803e3d6000fd5b505b5050506001548114151561069a57600080fd5b5050565b6106a6610b98565b600660008373ffffffffffffffffffffffffffffffffffffffff1673ffffffffffffffffffffffffffffffffffffffff16815260200190815260200160002060c060405190810160405290816000820160009054906101000a900461ffff1661ffff1661ffff1681526020016000820160029054906101000a900460ff1660ff1660ff1681526020016000820160039054906101000a900460ff1660ff1660ff16815260200160018201600a806020026040519081016040528092919082600a80156107b3576020028201916000905b82829054906101000a900463ffffffff1663ffffffff16815260200190600401906020826003010492830192600103820291508084116107765790505b5050505050815260200160038201600a806020026040519081016040528092919082600a801561081d576020028201916000905b82829054906101000a900460ff161515815260200190600101906020826000010492830192600103820291508084116107e75790505b505050505081526020016004820160009054906101000a900460ff1615151515815250509050919050565b61085061095d565b151561085b57600080fd5b600073ffffffffffffffffffffffffffffffffffffffff166000809054906101000a900473ffffffffffffffffffffffffffffffffffffffff1673ffffffffffffffffffffffffffffffffffffffff167f8be0079c531659141344cd1fd0a4f28419497f9722a3daafe3b4186f6b6457e060405160405180910390a360008060006101000a81548173ffffffffffffffffffffffffffffffffffffffff021916908373ffffffffffffffffffffffffffffffffffffffff160217905550565b600460009054906101000a900461ffff1681565b60035481565b60008060009054906101000a900473ffffffffffffffffffffffffffffffffffffffff16905090565b60008060009054906101000a900473ffffffffffffffffffffffffffffffffffffffff1673ffffffffffffffffffffffffffffffffffffffff163373ffffffffffffffffffffffffffffffffffffffff1614905090565b600042905090565b6000600a6003548115156109cc57fe5b04905090565b60025481565b6109e061095d565b15156109eb57600080fd5b6109f481610a56565b50565b60008082840190508361ffff168161ffff1610151515610a4c576040517f08c379a0000000000000000000000000000000000000000000000000000000008152600401610a43906110e9565b60405180910390fd5b8091505092915050565b600073ffffffffffffffffffffffffffffffffffffffff168173ffffffffffffffffffffffffffffffffffffffff1614151515610a9257600080fd5b8073ffffffffffffffffffffffffffffffffffffffff166000809054906101000a900473ffffffffffffffffffffffffffffffffffffffff1673ffffffffffffffffffffffffffffffffffffffff167f8be0079c531659141344cd1fd0a4f28419497f9722a3daafe3b4186f6b6457e060405160405180910390a3806000806101000a81548173ffffffffffffffffffffffffffffffffffffffff021916908373ffffffffffffffffffffffffffffffffffffffff16021790555050565b61014060405190810160405280600a90602082028038833980820191505090505090565b61014060405190810160405280600a90602082028038833980820191505090505090565b61030060405190810160405280600061ffff168152602001600060ff168152602001600060ff168152602001610bcc610d24565b8152602001610bd9610d48565b81526020016000151581525090565b82600a600701600890048101928215610c7a5791602002820160005b83821115610c4857835183826101000a81548163ffffffff021916908363ffffffff1602179055509260200192600401602081600301049283019260010302610c04565b8015610c785782816101000a81549063ffffffff0219169055600401602081600301049283019260010302610c48565b505b509050610c879190610d6c565b5090565b82600a601f01602090048101928215610d135791602002820160005b83821115610ce457835183826101000a81548160ff0219169083151502179055509260200192600101602081600001049283019260010302610ca7565b8015610d115782816101000a81549060ff0219169055600101602081600001049283019260010302610ce4565b505b509050610d209190610d9f565b5090565b61014060405190810160405280600a90602082028038833980820191505090505090565b61014060405190810160405280600a90602082028038833980820191505090505090565b610d9c91905b80821115610d9857600081816101000a81549063ffffffff021916905550600101610d72565b5090565b90565b610dcc91905b80821115610dc857600081816101000a81549060ff021916905550600101610da5565b5090565b90565b6000610ddb823561126d565b905092915050565b6000610def823561127f565b905092915050565b600060208284031215610e0957600080fd5b6000610e1784828501610dcf565b91505092915050565b600060208284031215610e3257600080fd5b6000610e4084828501610de3565b91505092915050565b610e52816111fa565b82525050565b610e61816111ca565b610e6a826111b6565b60005b82811015610e9c57610e80858351610eee565b610e89826111e0565b9150602085019450600181019050610e6d565b5050505050565b610eac816111d5565b610eb5826111c0565b60005b82811015610ee757610ecb858351611075565b610ed4826111ed565b9150602085019450600181019050610eb8565b5050505050565b610ef78161120c565b82525050565b6000601282527f696e76616c69642073746172742074696d6500000000000000000000000000006020830152604082019050919050565b6000601a82527f6164643a2072657665727473206f6e20536166654d61746831360000000000006020830152604082019050919050565b6000601982527f6465706f73697420455448206973206e6f7420656e6f756768000000000000006020830152604082019050919050565b6000601a82527f7573657220697320616c726561647920726567697374657265640000000000006020830152604082019050919050565b61030082016000820151610ff06000850182611057565b5060208201516110036020850182611084565b5060408201516110166040850182611084565b5060608201516110296060850182610ea3565b50608082015161103d6101a0850182610e58565b5060a08201516110516102e0850182610eee565b50505050565b61106081611218565b82525050565b61106f81611246565b82525050565b61107e81611250565b82525050565b61108d81611260565b82525050565b60006020820190506110a86000830184610e49565b92915050565b60006020820190506110c36000830184610eee565b92915050565b600060208201905081810360008301526110e281610efd565b9050919050565b6000602082019050818103600083015261110281610f34565b9050919050565b6000602082019050818103600083015261112281610f6b565b9050919050565b6000602082019050818103600083015261114281610fa2565b9050919050565b60006103008201905061115f6000830184610fd9565b92915050565b600060208201905061117a6000830184611057565b92915050565b60006020820190506111956000830184611066565b92915050565b60006020820190506111b06000830184611075565b92915050565b6000819050919050565b6000819050919050565b6000600a9050919050565b6000600a9050919050565b6000602082019050919050565b6000602082019050919050565b600061120582611226565b9050919050565b60008115159050919050565b600061ffff82169050919050565b600073ffffffffffffffffffffffffffffffffffffffff82169050919050565b6000819050919050565b600063ffffffff82169050919050565b600060ff82169050919050565b600061127882611226565b9050919050565b600063ffffffff8216905091905056fea265627a7a723058206615a7c3101d3cc11e7af5717015187bcc7b35c23684acfadd77dc3db1c1561e6c6578706572696d656e74616cf50037",
  "source": "pragma solidity >=0.4.99 <0.6.0;\npragma experimental ABIEncoderV2;\n\nimport \"openzeppelin-solidity/contracts/ownership/Ownable.sol\";\nimport \"openzeppelin-solidity/contracts/utils/ReentrancyGuard.sol\";\nimport \"../submodules/solidity-util/lib/SafeMath16.sol\";\n\n/**\n * @title TenDaysWakeUpDevil\n * @author Ryo Komiyama <https://github.com/ryokomy>\n */\ncontract TenDaysWakeUpDevil is Ownable, ReentrancyGuard {\n\n    using SafeMath16 for uint16;\n\n    /**\n     * @notice\n     * struct for wakeup data\n     */\n    struct WakeUps {\n        uint16 userId;\n        uint8 successCount;\n        uint8 withdrawCount;\n        uint32[10] wakeUpAts;\n        bool[10] successes;\n        bool exists;\n    }\n\n    event RegisterEvent(\n        address indexed _userAddress,\n        uint32 _startAt\n    );\n\n    /**\n     * @notice\n     * total ETH amount lost by users\n     */\n    uint256 public totalLostETH = 0;\n\n    /**\n     * @notice\n     * deposit ETH amount for register\n     * this ETH is progressively lost when user fails to waek up\n     */\n    uint256 public depositETHAmount = 3 ether;\n\n    uint16 public numberOfUsers = 0;\n\n    /**\n     * @notice\n     * mapping from userId to address\n     */\n    mapping(uint16 => address) internal _userIdToAddress;\n \n    /**\n     * @notice\n     * mapping from user address to wakeup data\n     */\n    mapping(address => WakeUps) internal _userAddressToWakeUps;\n\n    /**\n     * @notice\n     * constructor\n     */\n    constructor() public {\n    }\n\n    /**\n     * @notice\n     * register function\n     * deposit is needed for register\n     *\n     * @param startAt is the first wakeup time in Unix Time\n     */\n    function register(uint32 startAt) external nonReentrant() payable\n    {\n        // higher value than depositETHAmont is needed for register\n        require(msg.value >= depositETHAmount, \"deposit ETH is not enough\");\n\n        // one address can register only once (TODO: fix this limitation)\n        require(_userAddressToWakeUps[msg.sender].exists == false, \"user is already registered\");\n\n        // check startAt\n        // solium-disable-next-line security/no-block-members\n        require((startAt > now) && (startAt < now + 5 days), \"invalid start time\");\n\n        // increment numberOfUsers\n        numberOfUsers = numberOfUsers.add(1);\n\n        // set _userIdToAddress mapping\n        _userIdToAddress[numberOfUsers] = msg.sender;\n\n        // create WakeUps\n        uint32[10] memory wakeUpAts;\n        bool[10] memory successes;\n        WakeUps memory wakeUps = WakeUps({\n            userId: numberOfUsers,\n            successCount: 0,\n            withdrawCount: 0,\n            wakeUpAts: wakeUpAts,\n            successes: successes,\n            exists: true\n        });\n        for (uint i = 0; i < 10; i++) {\n            wakeUps.wakeUpAts[i] = uint32(startAt + i * (1 days));\n        }\n        _userAddressToWakeUps[msg.sender] = wakeUps;\n\n        // return extra amount of ETH\n        if (msg.value > depositETHAmount) {\n            msg.sender.transfer(msg.value - depositETHAmount);\n        }\n    }\n\n    // function RobinHood(address _userAddress) external {\n        \n    // }\n\n    /**\n     */\n    function userAddressToWakeUps(address _userAddress) external view returns (WakeUps memory) {\n        return _userAddressToWakeUps[_userAddress];\n    }\n\n    /**\n     * @notice\n     * lostEHTPerFailure function\n     *\n     * @return lost ETH amount per failure\n     */\n    function lostEHTPerFailure() public view returns (uint256) {\n        return (depositETHAmount / 10);\n    }\n\n    /**\n     * @return current time in Unix Time\n     */\n    function currentTime() public view returns (uint32) {\n        // solium-disable-next-line security/no-block-members\n        return uint32(now);\n    }\n}\n",
  "sourcePath": "/Users/ryoheikomiyama/src/github.com/ryokomy/wakeup-contract/contracts/TenDaysWakeUpDevil.sol",
  "compiler": {
    "name": "solc",
    "version": "0.5.0+commit.1d4f565a.Emscripten.clang"
  },
  "schemaVersion": "3.0.1",
  "updatedAt": "2019-02-26T10:48:44.191Z",
  "devdoc": {
    "author": "Ryo Komiyama <https://github.com/ryokomy>",
    "methods": {
      "currentTime()": {
        "return": "current time in Unix Time"
      },
      "isOwner()": {
        "return": "true if `msg.sender` is the owner of the contract."
      },
      "lostEHTPerFailure()": {
        "return": "lost ETH amount per failure"
      },
      "owner()": {
        "return": "the address of the owner."
      },
      "register(uint32)": {
        "params": {
          "startAt": "is the first wakeup time in Unix Time"
        }
      },
      "renounceOwnership()": {
        "details": "Allows the current owner to relinquish control of the contract."
      },
      "transferOwnership(address)": {
        "details": "Allows the current owner to transfer control of the contract to a newOwner.",
        "params": {
          "newOwner": "The address to transfer ownership to."
        }
      }
    },
    "title": "TenDaysWakeUpDevil"
  },
  "userdoc": {
    "methods": {
      "constructor": "constructor",
      "lostEHTPerFailure()": {
        "notice": "lostEHTPerFailure function"
      },
      "register(uint32)": {
        "notice": "register function deposit is needed for register"
      },
      "renounceOwnership()": {
        "notice": "Renouncing to ownership will leave the contract without an owner. It will not be possible to call the functions with the `onlyOwner` modifier anymore."
      }
    }
  }
}