{
  "contractName": "WakeUp",
  "abi": [
    {
      "constant": true,
      "inputs": [
        {
          "name": "",
          "type": "uint16"
        }
      ],
      "name": "userIdToAddress",
      "outputs": [
        {
          "name": "",
          "type": "address"
        }
      ],
      "payable": false,
      "stateMutability": "view",
      "type": "function",
      "signature": "0x460eae2e"
    },
    {
      "constant": true,
      "inputs": [
        {
          "name": "",
          "type": "address"
        }
      ],
      "name": "userAddressToWakeUps",
      "outputs": [
        {
          "name": "userId",
          "type": "uint16"
        },
        {
          "name": "numberOfDays",
          "type": "uint8"
        },
        {
          "name": "exists",
          "type": "bool"
        }
      ],
      "payable": false,
      "stateMutability": "view",
      "type": "function",
      "signature": "0x67438210"
    },
    {
      "constant": false,
      "inputs": [],
      "name": "renounceOwnership",
      "outputs": [],
      "payable": false,
      "stateMutability": "nonpayable",
      "type": "function",
      "signature": "0x715018a6"
    },
    {
      "constant": true,
      "inputs": [],
      "name": "numberOfUsers",
      "outputs": [
        {
          "name": "",
          "type": "uint16"
        }
      ],
      "payable": false,
      "stateMutability": "view",
      "type": "function",
      "signature": "0x75ce46a7"
    },
    {
      "constant": true,
      "inputs": [],
      "name": "depositETHAmount",
      "outputs": [
        {
          "name": "",
          "type": "uint256"
        }
      ],
      "payable": false,
      "stateMutability": "view",
      "type": "function",
      "signature": "0x85a07678"
    },
    {
      "constant": true,
      "inputs": [],
      "name": "owner",
      "outputs": [
        {
          "name": "",
          "type": "address"
        }
      ],
      "payable": false,
      "stateMutability": "view",
      "type": "function",
      "signature": "0x8da5cb5b"
    },
    {
      "constant": true,
      "inputs": [],
      "name": "isOwner",
      "outputs": [
        {
          "name": "",
          "type": "bool"
        }
      ],
      "payable": false,
      "stateMutability": "view",
      "type": "function",
      "signature": "0x8f32d59b"
    },
    {
      "constant": true,
      "inputs": [],
      "name": "totalLostETH",
      "outputs": [
        {
          "name": "",
          "type": "uint256"
        }
      ],
      "payable": false,
      "stateMutability": "view",
      "type": "function",
      "signature": "0xf1e6b87c"
    },
    {
      "constant": false,
      "inputs": [
        {
          "name": "newOwner",
          "type": "address"
        }
      ],
      "name": "transferOwnership",
      "outputs": [],
      "payable": false,
      "stateMutability": "nonpayable",
      "type": "function",
      "signature": "0xf2fde38b"
    },
    {
      "inputs": [],
      "payable": false,
      "stateMutability": "nonpayable",
      "type": "constructor",
      "signature": "constructor"
    },
    {
      "anonymous": false,
      "inputs": [
        {
          "indexed": true,
          "name": "previousOwner",
          "type": "address"
        },
        {
          "indexed": true,
          "name": "newOwner",
          "type": "address"
        }
      ],
      "name": "OwnershipTransferred",
      "type": "event",
      "signature": "0x8be0079c531659141344cd1fd0a4f28419497f9722a3daafe3b4186f6b6457e0"
    },
    {
      "constant": false,
      "inputs": [],
      "name": "register",
      "outputs": [],
      "payable": true,
      "stateMutability": "payable",
      "type": "function",
      "signature": "0x1aa3a008"
    },
    {
      "constant": true,
      "inputs": [
        {
          "name": "_user",
          "type": "address"
        }
      ],
      "name": "lostEHTPerFailure",
      "outputs": [
        {
          "name": "",
          "type": "uint256"
        }
      ],
      "payable": false,
      "stateMutability": "view",
      "type": "function",
      "signature": "0x4944ff5b"
    },
    {
      "constant": true,
      "inputs": [],
      "name": "currentTime",
      "outputs": [
        {
          "name": "",
          "type": "uint32"
        }
      ],
      "payable": false,
      "stateMutability": "view",
      "type": "function",
      "signature": "0xd18e81b3"
    }
  ],
  "bytecode": "0x6080604052674563918244f4000060035534801561001c57600080fd5b50336000806101000a81548173ffffffffffffffffffffffffffffffffffffffff021916908373ffffffffffffffffffffffffffffffffffffffff1602179055506000809054906101000a900473ffffffffffffffffffffffffffffffffffffffff1673ffffffffffffffffffffffffffffffffffffffff16600073ffffffffffffffffffffffffffffffffffffffff167f8be0079c531659141344cd1fd0a4f28419497f9722a3daafe3b4186f6b6457e060405160405180910390a3600180819055506000600460006101000a81548161ffff021916908361ffff1602179055506107958061010d6000396000f3fe6080604052600436106100ba576000357c0100000000000000000000000000000000000000000000000000000000900463ffffffff1680631aa3a008146100bf578063460eae2e146100c95780634944ff5b1461014857806367438210146101ad578063715018a61461023257806375ce46a71461024957806385a076781461027c5780638da5cb5b146102a75780638f32d59b146102fe578063d18e81b31461032d578063f1e6b87c14610364578063f2fde38b1461038f575b600080fd5b6100c76103e0565b005b3480156100d557600080fd5b50610106600480360360208110156100ec57600080fd5b81019080803561ffff1690602001909291905050506103e2565b604051808273ffffffffffffffffffffffffffffffffffffffff1673ffffffffffffffffffffffffffffffffffffffff16815260200191505060405180910390f35b34801561015457600080fd5b506101976004803603602081101561016b57600080fd5b81019080803573ffffffffffffffffffffffffffffffffffffffff169060200190929190505050610415565b6040518082815260200191505060405180910390f35b3480156101b957600080fd5b506101fc600480360360208110156101d057600080fd5b81019080803573ffffffffffffffffffffffffffffffffffffffff169060200190929190505050610484565b604051808461ffff1661ffff1681526020018360ff1660ff16815260200182151515158152602001935050505060405180910390f35b34801561023e57600080fd5b506102476104d6565b005b34801561025557600080fd5b5061025e6105a8565b604051808261ffff1661ffff16815260200191505060405180910390f35b34801561028857600080fd5b506102916105bc565b6040518082815260200191505060405180910390f35b3480156102b357600080fd5b506102bc6105c2565b604051808273ffffffffffffffffffffffffffffffffffffffff1673ffffffffffffffffffffffffffffffffffffffff16815260200191505060405180910390f35b34801561030a57600080fd5b506103136105eb565b604051808215151515815260200191505060405180910390f35b34801561033957600080fd5b50610342610642565b604051808263ffffffff1663ffffffff16815260200191505060405180910390f35b34801561037057600080fd5b5061037961064a565b6040518082815260200191505060405180910390f35b34801561039b57600080fd5b506103de600480360360208110156103b257600080fd5b81019080803573ffffffffffffffffffffffffffffffffffffffff169060200190929190505050610650565b005b565b60056020528060005260406000206000915054906101000a900473ffffffffffffffffffffffffffffffffffffffff1681565b6000600660008373ffffffffffffffffffffffffffffffffffffffff1673ffffffffffffffffffffffffffffffffffffffff16815260200190815260200160002060000160029054906101000a900460ff1660ff16674563918244f4000081151561047c57fe5b049050919050565b60066020528060005260406000206000915090508060000160009054906101000a900461ffff16908060000160029054906101000a900460ff16908060020160009054906101000a900460ff16905083565b6104de6105eb565b15156104e957600080fd5b600073ffffffffffffffffffffffffffffffffffffffff166000809054906101000a900473ffffffffffffffffffffffffffffffffffffffff1673ffffffffffffffffffffffffffffffffffffffff167f8be0079c531659141344cd1fd0a4f28419497f9722a3daafe3b4186f6b6457e060405160405180910390a360008060006101000a81548173ffffffffffffffffffffffffffffffffffffffff021916908373ffffffffffffffffffffffffffffffffffffffff160217905550565b600460009054906101000a900461ffff1681565b60035481565b60008060009054906101000a900473ffffffffffffffffffffffffffffffffffffffff16905090565b60008060009054906101000a900473ffffffffffffffffffffffffffffffffffffffff1673ffffffffffffffffffffffffffffffffffffffff163373ffffffffffffffffffffffffffffffffffffffff1614905090565b600042905090565b60025481565b6106586105eb565b151561066357600080fd5b61066c8161066f565b50565b600073ffffffffffffffffffffffffffffffffffffffff168173ffffffffffffffffffffffffffffffffffffffff16141515156106ab57600080fd5b8073ffffffffffffffffffffffffffffffffffffffff166000809054906101000a900473ffffffffffffffffffffffffffffffffffffffff1673ffffffffffffffffffffffffffffffffffffffff167f8be0079c531659141344cd1fd0a4f28419497f9722a3daafe3b4186f6b6457e060405160405180910390a3806000806101000a81548173ffffffffffffffffffffffffffffffffffffffff021916908373ffffffffffffffffffffffffffffffffffffffff1602179055505056fea165627a7a7230582024499ae3b3595cd2c6c2768bf507c9c216870e15957cd386a102cd4b6b0530810029",
  "source": "pragma solidity >=0.4.21 <0.6.0;\n\nimport \"openzeppelin-solidity/contracts/ownership/Ownable.sol\";\nimport \"openzeppelin-solidity/contracts/utils/ReentrancyGuard.sol\";\n\ncontract WakeUp is Ownable, ReentrancyGuard {\n\n    /**\n     * total ETH amount lost by users\n     */\n    uint256 public totalLostETH;\n\n    /**\n     * deposit ETH amount for register\n     * this ETH is progressively lost when user fails to waek up\n     */\n    uint256 public depositETHAmount = 5 ether;\n\n    uint16 public numberOfUsers;\n    mapping(uint16 => address) public userIdToAddress;\n \n    mapping(address => WakeUps) public userAddressToWakeUps;\n    struct WakeUps {\n        uint16 userId;\n        uint8 numberOfDays;\n        WakeUpElement[] wakeUpElements;\n        bool exists;\n    }\n    struct WakeUpElement {\n        uint32 wakeUpAt;\n        bool success;\n    }\n\n    constructor() public {\n        numberOfUsers = 0;\n    }\n\n    function register() external payable {\n\n    }\n\n    /**\n     * @param _user is a user's address\n     * @return lost ETH amount per failure\n     */\n    function lostEHTPerFailure(address _user) public view returns (uint256) {\n        return (5 ether / uint256(userAddressToWakeUps[_user].numberOfDays));\n    }\n\n    function currentTime() public view returns (uint32) {\n        // solium-disable-next-line security/no-block-members\n        return uint32(now);\n    }\n}\n",
  "sourcePath": "/Users/ryoheikomiyama/src/github.com/ryokomy/wakeup-contract/contracts/WakeUp.sol",
  "compiler": {
    "name": "solc",
    "version": "0.5.0+commit.1d4f565a.Emscripten.clang"
  },
  "schemaVersion": "3.0.1",
  "updatedAt": "2019-02-12T13:02:34.841Z",
  "devdoc": {
    "methods": {
      "isOwner()": {
        "return": "true if `msg.sender` is the owner of the contract."
      },
      "lostEHTPerFailure(address)": {
        "params": {
          "_user": "is a user's address"
        },
        "return": "lost ETH amount per failure"
      },
      "owner()": {
        "return": "the address of the owner."
      },
      "renounceOwnership()": {
        "details": "Allows the current owner to relinquish control of the contract."
      },
      "transferOwnership(address)": {
        "details": "Allows the current owner to transfer control of the contract to a newOwner.",
        "params": {
          "newOwner": "The address to transfer ownership to."
        }
      }
    }
  },
  "userdoc": {
    "methods": {
      "renounceOwnership()": {
        "notice": "Renouncing to ownership will leave the contract without an owner. It will not be possible to call the functions with the `onlyOwner` modifier anymore."
      }
    }
  }
}